{
	"data": {
		"bytecode": {
			"linkReferences": {},
			"object": "608060405234801561001057600080fd5b50600080546001600160a01b031916339081178255604051909182917f8be0079c531659141344cd1fd0a4f28419497f9722a3daafe3b4186f6b6457e0908290a350613313806100616000396000f3fe6080604052600436106101a05760003560e01c8063a039b403116100ec578063e7334fe51161008a578063f53fa63211610064578063f53fa632146104a6578063f6f32206146104bb578063fae926121461054b578063fc81f3ec1461056b57600080fd5b8063e7334fe514610453578063e907924514610471578063f2fde38b1461048657600080fd5b8063b8522043116100c6578063b8522043146103dc578063d0c5c585146103fe578063dd3bcc1514610413578063dd4a470e1461043357600080fd5b8063a039b40314610389578063a84b52a51461039e578063af0d3b9a146103be57600080fd5b8063542d3f1c11610159578063715018a611610133578063715018a6146103175780637371da0d1461032c57806378687a4e146103415780638da5cb5b1461035757600080fd5b8063542d3f1c146102a75780635618f47a146102d55780636386c1c7146102ea57600080fd5b8063174db7bb146101ac5780631bc1a64b146101ee5780633d103b97146102135780633f3a6783146102335780634b13b9901461025357806353edd8f71461028557600080fd5b366101a757005b600080fd5b3480156101b857600080fd5b506101cc6101c7366004612d41565b61058b565b6040805193845260208401929092521515908201526060015b60405180910390f35b3480156101fa57600080fd5b506102036107f4565b60405190151581526020016101e5565b34801561021f57600080fd5b5061020361022e366004612d5e565b6108b9565b34801561023f57600080fd5b5061020361024e366004612d8e565b61166d565b34801561025f57600080fd5b5061027361026e366004612d41565b611680565b60405160ff90911681526020016101e5565b34801561029157600080fd5b506102a56102a0366004612dbc565b6119e5565b005b3480156102b357600080fd5b506102c76102c2366004612d41565b611a61565b6040519081526020016101e5565b3480156102e157600080fd5b506102a5611a6e565b3480156102f657600080fd5b5061030a610305366004612d41565b611d5a565b6040516101e59190612e84565b34801561032357600080fd5b506102a5611f4d565b34801561033857600080fd5b506102a5611fc1565b34801561034d57600080fd5b506102c760025481565b34801561036357600080fd5b506000546001600160a01b03165b6040516001600160a01b0390911681526020016101e5565b34801561039557600080fd5b506102a561210b565b3480156103aa57600080fd5b506102a56103b9366004612d41565b61222f565b3480156103ca57600080fd5b506007546001600160a01b0316610371565b3480156103e857600080fd5b506103f161256b565b6040516101e59190612f5c565b34801561040a57600080fd5b506003546102c7565b34801561041f57600080fd5b506102a561042e366004612fbf565b6125cd565b34801561043f57600080fd5b506102c761044e366004612d41565b61263e565b34801561045f57600080fd5b506005546001600160a01b0316610371565b34801561047d57600080fd5b506001546102c7565b34801561049257600080fd5b506102a56104a1366004612d41565b61264b565b3480156104b257600080fd5b506102a5612711565b3480156104c757600080fd5b506102a56104d6366004613021565b6001600160a01b039096166000908152600960205260409020805460ff93841663010000000263ff0000001995851662010000029590951663ffff0000199685166101000261ffff19909216949097169384171794909416949094179190911760ff1916178155600381019190915560040155565b34801561055757600080fd5b506102a5610566366004612d41565b61274d565b34801561057757600080fd5b506102a561058636600461309b565b612799565b6001600160a01b038082166000908152600960209081526040808320815161016081018352815460ff8082168352610100808304821684880152620100008304821684870152630100000090920416606083015260018301546080830152600283015460a0830152600383015460c0830152600483015460e0830152600583015490961695810195909552600681018054835181860281018601909452808452949586958695869592949361012086019392909183018282801561067857602002820191906000526020600020905b81546001600160a01b0316815260019091019060200180831161065a575b5050505050815260200160078201805480602002602001604051908101604052809291908181526020016000905b828210156107065760008481526020908190206040805160808101825260038602909201805460ff811615158452610100900463ffffffff16838501526001808201549284019290925260020154606083015290835290920191016106a6565b5050509152505061014081015151909150156107ec5761014081015180516000919061073490600190613139565b815181106107445761074461314c565b602002602001015190506000620151808260200151426107649190613162565b61076e919061319c565b905060648163ffffffff161061078657506001925060645b8063ffffffff16600154603284604001516107a191906131bf565b6107ab91906131bf565b6107b591906131d3565b955081606001518610156107cb57816060015195505b81606001518611156107e95760608201516107e69087613139565b94505b50505b509193909250565b3360008181526009602052604081209091829061081090611680565b825490915060ff63010000009091048116908216116108925760405162461bcd60e51b815260206004820152603360248201527f554e4d5320757067726164654c6576656c5261746528293a2063616e206e6f746044820152722075706772616465206c6576656c207261746560681b60648201526084015b60405180910390fd5b815463ff0000001916630100000060ff8316021782556108b061283a565b60019250505090565b60008268056bc75e2d6310000014806108da575082681b1ae4d6e2ef500000145b806108ed575082683635c9adc5dea00000145b6109525760405162461bcd60e51b815260206004820152603060248201527f554e4d532062757928293a20616d6f756e742073686f756c642062652031303060448201526f206f7220353030206f7220313030305560801b6064820152608401610889565b6001600160a01b038216156109c9576001600160a01b0382166000908152600960205260409020600701546109c95760405162461bcd60e51b815260206004820152601b60248201527f554e4d532062757928293a20706172656e74206e6f206f7264657200000000006044820152606401610889565b6006546040516370a0823160e01b815233600482018190529185916001600160a01b03909116906370a0823190602401602060405180830381865afa158015610a16573d6000803e3d6000fd5b505050506040513d601f19601f82011682018060405250810190610a3a91906131ea565b1015610a995760405162461bcd60e51b815260206004820152602860248201527f554e4d532062757928293a20696e73756666696369656e742062616c616e6365604482015267081bd9881554d11560c21b6064820152608401610889565b6001600160a01b03811660009081526009602052604081206007810154909103610b1c57805462ffffff191662020a05178155600a80546001810182556000919091527fc65a7bb8d6351c1cf70c95a316cc6a92839c986682d98bc35f958f4883f9d2a80180546001600160a01b0319166001600160a01b038416179055610baf565b600781018054610b2e90600190613139565b81548110610b3e57610b3e61314c565b600091825260209091206003909102015460ff161515600114610baf5760405162461bcd60e51b815260206004820152602360248201527f554e4d532062757928293a206c617374206f72646572206973206e6f7420636c60448201526232b0b960e91b6064820152608401610889565b610bb761283a565b6006546008546040516323b872dd60e01b81526001600160a01b0385811660048301529182166024820152604481018890529116906323b872dd906064016020604051808303816000875af1158015610c14573d6000803e3d6000fd5b505050506040513d601f19601f82011682018060405250810190610c389190613203565b50600860009054906101000a90046001600160a01b03166001600160a01b031663fff6cae96040518163ffffffff1660e01b8152600401600060405180830381600087803b158015610c8957600080fd5b505af1158015610c9d573d6000803e3d6000fd5b505060408051608081018252600080825263ffffffff42811660208085019182529484018c81526060850184815260078a0180546001818101835591875297862096516003909802909601805493519094166101000264ffffffff00199715159790971664ffffffffff19909316929092179590951782559351818401559251600290930192909255549092509050610d3e87670de0b6b3a76400006131d3565b610d4891906131bf565b60075460405163a9059cbb60e01b815261dead6004820152602481018390529192506001600160a01b03169063a9059cbb906044016020604051808303816000875af1158015610d9c573d6000803e3d6000fd5b505050506040513d601f19601f82011682018060405250810190610dc09190613203565b508060036000828254610dd39190613225565b90915550506001600160a01b03851615801590610dfb575060058201546001600160a01b0316155b8015610e0e5750610e0c838661296c565b155b15610e66576005820180546001600160a01b03199081166001600160a01b0388811691821790935560009081526009602090815260408220600601805460018101825590835291200180549091169185169190911790555b60058201546001600160a01b03161561165f576005909101546001600160a01b03166000818152600960205260408120600181018054919493928992610ead908490613225565b909155505082546301000000900460ff16600003610eff578254606490610ed79060ff16846131d3565b610ee191906131bf565b836003016000828254610ef49190613225565b90915550610f4a9050565b8254606490610f1a9060ff6301000000820481169116613238565b610f279060ff16846131d3565b610f3191906131bf565b836003016000828254610f449190613225565b90915550505b60058301546001600160a01b03161561165d575081546005909201546001600160a01b0316600081815260096020526040812060028101805491956301000000900460ff1692918a91908390610fa1908490613225565b909155505084546301000000900460ff161580610fcc5750845460ff80841663010000009092041611155b1561106a5784546301000000900460ff16600a148015610fef57508160ff16600a145b8015610ff9575080155b156110535750508254600a9060019060649061101e90610100900460ff166005613238565b61102b9060ff16866131d3565b61103591906131bf565b8560030160008282546110489190613225565b909155506110d49050565b845460649061102b90610100900460ff16866131d3565b8454606490839061108c9060ff63010000008204811691610100900416613238565b6110969190613251565b6110a39060ff16866131d3565b6110ad91906131bf565b8560030160008282546110c09190613225565b909155505084546301000000900460ff1691505b60058501546001600160a01b03161561165a576005909401546001600160a01b031660008181526009602052604090208054909591935060ff63010000009091041615806111305750845460ff80841663010000009092041611155b156111d05784546301000000900460ff16600a14801561115357508160ff16600a145b801561115d575080155b156111b85750508254600a906001906064906111839062010000900460ff166005613238565b6111909060ff16866131d3565b61119a91906131bf565b8560030160008282546111ad9190613225565b9091555061123b9050565b84546064906111909062010000900460ff16866131d3565b845460649083906111f39060ff6301000000820481169162010000900416613238565b6111fd9190613251565b61120a9060ff16866131d3565b61121491906131bf565b8560030160008282546112279190613225565b909155505084546301000000900460ff1691505b60058501546001600160a01b03161561165a576005909401546001600160a01b031660008181526009602052604090208054909591935060ff63010000009091041615806112975750845460ff80841663010000009092041611155b156113375784546301000000900460ff16600a1480156112ba57508160ff16600a145b80156112c4575080155b1561131f5750508254600a906001906064906112ea9062010000900460ff166005613238565b6112f79060ff16866131d3565b61130191906131bf565b8560030160008282546113149190613225565b909155506113a29050565b84546064906112f79062010000900460ff16866131d3565b8454606490839061135a9060ff6301000000820481169162010000900416613238565b6113649190613251565b6113719060ff16866131d3565b61137b91906131bf565b85600301600082825461138e9190613225565b909155505084546301000000900460ff1691505b60058501546001600160a01b03161561165a576005909401546001600160a01b031660008181526009602052604090208054909591935060ff63010000009091041615806113fe5750845460ff80841663010000009092041611155b1561149e5784546301000000900460ff16600a14801561142157508160ff16600a145b801561142b575080155b156114865750508254600a906001906064906114519062010000900460ff166005613238565b61145e9060ff16866131d3565b61146891906131bf565b85600301600082825461147b9190613225565b909155506115099050565b845460649061145e9062010000900460ff16866131d3565b845460649083906114c19060ff6301000000820481169162010000900416613238565b6114cb9190613251565b6114d89060ff16866131d3565b6114e291906131bf565b8560030160008282546114f59190613225565b909155505084546301000000900460ff1691505b60058501546001600160a01b03161561165a576005909401546001600160a01b031660008181526009602052604090208054909591935060ff63010000009091041615806115655750845460ff80841663010000009092041611155b156115fd5784546301000000900460ff16600a14801561158857508160ff16600a145b8015611592575080155b156115e55784546064906115b09062010000900460ff166005613238565b6115bd9060ff16866131d3565b6115c791906131bf565b8560030160008282546115da9190613225565b9091555061165a9050565b84546064906115bd9062010000900460ff16866131d3565b845460649083906116209060ff6301000000820481169162010000900416613238565b61162a9190613251565b6116379060ff16866131d3565b61164191906131bf565b8560030160008282546116549190613225565b90915550505b50505b505b600193505050505b92915050565b6000611679838361296c565b9392505050565b6001600160a01b038082166000908152600960209081526040808320815161016081018352815460ff8082168352610100808304821684880152620100008304821684870152630100000090920416606083015260018301546080830152600283015460a0830152600383015460c0830152600483015460e083015260058301549096169581019590955260068101805483518186028101860190945280845294958695909492936101208601939092919083018282801561176b57602002820191906000526020600020905b81546001600160a01b0316815260019091019060200180831161174d575b5050505050815260200160078201805480602002602001604051908101604052809291908181526020016000905b828210156117f95760008481526020908190206040805160808101825260038602909201805460ff811615158452610100900463ffffffff1683850152600180820154928401929092526002015460608301529083529092019101611799565b505050915250506101208101518051919250906003111561181e575060009392505050565b600080808080805b86518110156118e657600960008883815181106118455761184561314c565b6020908102919091018101516001600160a01b03168252810191909152604001600020546301000000900460ff1691506007821061188b57611888600184613225565b92505b60058260ff16106118a4576118a1600185613225565b93505b60038260ff16106118bd576118ba600186613225565b94505b60018260ff16106118d6576118d3600187613225565b95505b6118df8161326a565b9050611826565b5060006118f48a60006129ce565b905069010f0cf064dd59200000811015611918575060009998505050505050505050565b60028311801561193357506a013da329b63364718000008110155b156119485750600a9998505050505050505050565b60028411801561196257506954b40b1f852bda0000008110155b15611977575060079998505050505050505050565b600285118015611991575069152d02c7e14af68000008110155b156119a6575060059998505050505050505050565b6002861180156119c0575069043c33c19375648000008110155b156119d5575060039998505050505050505050565b5060019998505050505050505050565b60055460405163a9059cbb60e01b81526001600160a01b039182166004820152602481018390529083169063a9059cbb906044016020604051808303816000875af1158015611a38573d6000803e3d6000fd5b505050506040513d601f19601f82011682018060405250810190611a5c9190613203565b505050565b60006116678260006129ce565b3360008181526009602052604090206007810154611ade5760405162461bcd60e51b815260206004820152602760248201527f554e4d5320636c61696d4d696e74546f6b656e28293a206f72646572206c69736044820152667420656d70747960c81b6064820152608401610889565b60078101805460009190611af490600190613139565b81548110611b0457611b0461314c565b60009182526020909120600390910201805490915060ff1615611b7c5760405162461bcd60e51b815260206004820152602a60248201527f554e4d5320636c61696d4d696e74546f6b656e28293a206c617374206f726465604482015269391034b99031b632b0b960b11b6064820152608401610889565b600080611b888561058b565b92509250508015611c4357825460ff191660011783558115611c3e5760075460405163a9059cbb60e01b81526001600160a01b038781166004830152602482018590529091169063a9059cbb906044016020604051808303816000875af1158015611bf7573d6000803e3d6000fd5b505050506040513d601f19601f82011682018060405250810190611c1b9190613203565b5081836002016000828254611c309190613225565b90915550611c3e905061283a565b611d53565b60008211611cb95760405162461bcd60e51b815260206004820152603860248201527f554e4d5320636c61696d4d696e74546f6b656e28293a20616374697665206f7260448201527f646572206176616c6961626c65416d6f756e74206973203000000000000000006064820152608401610889565b60075460405163a9059cbb60e01b81526001600160a01b038781166004830152602482018590529091169063a9059cbb906044016020604051808303816000875af1158015611d0c573d6000803e3d6000fd5b505050506040513d601f19601f82011682018060405250810190611d309190613203565b5081836002016000828254611d459190613225565b90915550611d53905061283a565b5050505050565b611dcc604051806101600160405280600060ff168152602001600060ff168152602001600060ff168152602001600060ff1681526020016000815260200160008152602001600081526020016000815260200160006001600160a01b0316815260200160608152602001606081525090565b6001600160a01b03808316600090815260096020908152604091829020825161016081018452815460ff8082168352610100808304821684870152620100008304821684880152630100000090920416606083015260018301546080830152600283015460a0830152600383015460c0830152600483015460e08301526005830154909516948101949094526006810180548451818502810185019095528085529193610120860193909290830182828015611eb157602002820191906000526020600020905b81546001600160a01b03168152600190910190602001808311611e93575b5050505050815260200160078201805480602002602001604051908101604052809291908181526020016000905b82821015611f3f5760008481526020908190206040805160808101825260038602909201805460ff811615158452610100900463ffffffff1683850152600180820154928401929092526002015460608301529083529092019101611edf565b505050915250909392505050565b6000546001600160a01b03163314611f775760405162461bcd60e51b815260040161088990613283565b600080546040516001600160a01b03909116907f8be0079c531659141344cd1fd0a4f28419497f9722a3daafe3b4186f6b6457e0908390a3600080546001600160a01b0319169055565b3360009081526009602052604081206004810154600382015491929110611ff95781600401548260030154611ff69190613139565b90505b6000811161206f5760405162461bcd60e51b815260206004820152603860248201527f554e4d5320636c61696d496e76697465426f6e757328293a206176616c69616260448201527f6c6520636c61696d20616d6f756e742069732030206e6f7700000000000000006064820152608401610889565b60075460405163a9059cbb60e01b8152336004820152602481018390526001600160a01b039091169063a9059cbb906044016020604051808303816000875af11580156120c0573d6000803e3d6000fd5b505050506040513d601f19601f820116820180604052508101906120e49190613203565b50808260040160008282546120f99190613225565b90915550612107905061283a565b5050565b6007546008546040516370a0823160e01b81526001600160a01b03918216600482015260009291909116906370a0823190602401602060405180830381865afa15801561215c573d6000803e3d6000fd5b505050506040513d601f19601f8201168201806040525081019061218091906131ea565b9050801561221c576006546008546040516370a0823160e01b81526001600160a01b039182166004820152839291909116906370a0823190602401602060405180830381865afa1580156121d8573d6000803e3d6000fd5b505050506040513d601f19601f820116820180604052508101906121fc91906131ea565b61220e90670de0b6b3a76400006131d3565b61221891906131bf565b6001555b61222962015180426131bf565b60025550565b6000546001600160a01b031633146122595760405162461bcd60e51b815260040161088990613283565b600780546001600160a01b0319166001600160a01b0383169081179091556040805163545844c160e11b8152905163a8b08982916004808201926020929091908290030181865afa1580156122b2573d6000803e3d6000fd5b505050506040513d601f19601f820116820180604052508101906122d691906132a3565b600880546001600160a01b0319166001600160a01b0392831617905560075460408051639ab4a44560e01b815290519190921691639ab4a4459160048083019260209291908290030181865afa158015612334573d6000803e3d6000fd5b505050506040513d601f19601f8201168201806040525081019061235891906132a3565b600680546001600160a01b0319166001600160a01b0392831617905560075460408051631934662b60e11b815290519190921691633268cc569160048083019260209291908290030181865afa1580156123b6573d6000803e3d6000fd5b505050506040513d601f19601f820116820180604052508101906123da91906132a3565b600480546001600160a01b0319166001600160a01b039283161781556007546040805163e7334fe560e01b81529051919093169263e7334fe592818101926020929091908290030181865afa158015612437573d6000803e3d6000fd5b505050506040513d601f19601f8201168201806040525081019061245b91906132a3565b600580546001600160a01b0319166001600160a01b039283161790556007546004805460405163095ea7b360e01b815290841691810191909152600019602482015291169063095ea7b3906044016020604051808303816000875af11580156124c8573d6000803e3d6000fd5b505050506040513d601f19601f820116820180604052508101906124ec9190613203565b506006546004805460405163095ea7b360e01b81526001600160a01b039182169281019290925260001960248301529091169063095ea7b3906044016020604051808303816000875af1158015612547573d6000803e3d6000fd5b505050506040513d601f19601f820116820180604052508101906121079190613203565b6060600a8054806020026020016040519081016040528092919081815260200182805480156125c357602002820191906000526020600020905b81546001600160a01b031681526001909101906020018083116125a5575b5050505050905090565b6001600160a01b0385166000908152600960205260408120600701805460ff87169081106125fd576125fd61314c565b60009182526020909120600390910201805463ffffffff9095166101000264ffffffff00199095169490941784555060018301919091556002909101555050565b6000611667826001612c16565b6000546001600160a01b031633146126755760405162461bcd60e51b815260040161088990613283565b6001600160a01b0381166126b65760405162461bcd60e51b815260206004820152600860248201526706e657720697320360c41b6044820152606401610889565b600080546040516001600160a01b03808516939216917f8be0079c531659141344cd1fd0a4f28419497f9722a3daafe3b4186f6b6457e091a3600080546001600160a01b0319166001600160a01b0392909216919091179055565b6005546040516001600160a01b03909116904780156108fc02916000818181858888f1935050505015801561274a573d6000803e3d6000fd5b50565b6000546001600160a01b031633146127775760405162461bcd60e51b815260040161088990613283565b600580546001600160a01b0319166001600160a01b0392909216919091179055565b6001600160a01b0383166000908152600960205260408120906127c0906006830190612cfa565b60005b82811015611d5357816006018484838181106127e1576127e161314c565b90506020020160208101906127f69190612d41565b81546001810183556000928352602090922090910180546001600160a01b0319166001600160a01b03909216919091179055806128328161326a565b9150506127c3565b600061284962015180426131bf565b905060025481111561274a576007546008546040516370a0823160e01b81526001600160a01b03918216600482015260009291909116906370a0823190602401602060405180830381865afa1580156128a6573d6000803e3d6000fd5b505050506040513d601f19601f820116820180604052508101906128ca91906131ea565b90508015612966576006546008546040516370a0823160e01b81526001600160a01b039182166004820152839291909116906370a0823190602401602060405180830381865afa158015612922573d6000803e3d6000fd5b505050506040513d601f19601f8201168201806040525081019061294691906131ea565b61295890670de0b6b3a76400006131d3565b61296291906131bf565b6001555b50600255565b60005b6001600160a01b038216156129c557826001600160a01b0316826001600160a01b03160361299f57506001611667565b6001600160a01b039182166000908152600960205260409020600501549091169061296f565b50600092915050565b6001600160a01b038083166000908152600960209081526040808320815161016081018352815460ff8082168352610100808304821684880152620100008304821684870152630100000090920416606083015260018301546080830152600283015460a0830152600383015460c0830152600483015460e0830152600583015490961695810195909552600681018054835181860281018601909452808452949586959094929361012086019390929190830182828015612ab957602002820191906000526020600020905b81546001600160a01b03168152600190910190602001808311612a9b575b5050505050815260200160078201805480602002602001604051908101604052809291908181526020016000905b82821015612b475760008481526020908190206040805160808101825260038602909201805460ff811615158452610100900463ffffffff1683850152600180820154928401929092526002015460608301529083529092019101612ae7565b505050508152505090506000805b82610140015151811015612ba3578261014001518181518110612b7a57612b7a61314c565b60200260200101516040015182612b919190613225565b9150612b9c8161326a565b9050612b55565b601e8511612c0d575060005b82610120015151811015612c0d57612bf18361012001518281518110612bd757612bd761314c565b6020026020010151866001612bec9190613225565b6129ce565b612bfb9083613225565b9150612c068161326a565b9050612baf565b50949350505050565b6001600160a01b038216600090815260096020908152604080832060060180548251818502810185019093528083528493830182828015612c8057602002820191906000526020600020905b81546001600160a01b03168152600190910190602001808311612c62575b50505050509050600081519050601e8463ffffffff1611612cf25760005b8251811015612c0d57612cd6838281518110612cbc57612cbc61314c565b6020026020010151866001612cd191906132c0565b612c16565b612ce09083613225565b9150612ceb8161326a565b9050612c9e565b949350505050565b508054600082559060005260206000209081019061274a91905b80821115612d285760008155600101612d14565b5090565b6001600160a01b038116811461274a57600080fd5b600060208284031215612d5357600080fd5b813561167981612d2c565b60008060408385031215612d7157600080fd5b823591506020830135612d8381612d2c565b809150509250929050565b60008060408385031215612da157600080fd5b8235612dac81612d2c565b91506020830135612d8381612d2c565b60008060408385031215612dcf57600080fd5b8235612dda81612d2c565b946020939093013593505050565b600081518084526020808501945080840160005b83811015612e215781516001600160a01b031687529582019590820190600101612dfc565b509495945050505050565b600081518084526020808501945080840160005b83811015612e215781518051151588528381015163ffffffff1684890152604080820151908901526060908101519088015260809096019590820190600101612e40565b60208152612e9860208201835160ff169052565b60006020830151612eae604084018260ff169052565b50604083015160ff8116606084015250606083015160ff8116608084015250608083015160a083015260a083015160c083015260c083015160e083015260e0830151610100818185015280850151915050610120612f16818501836001600160a01b03169052565b808501519150506101606101408181860152612f36610180860184612de8565b90860151858203601f190183870152909250612f528382612e2c565b9695505050505050565b6020808252825182820181905260009190848201906040850190845b81811015612f9d5783516001600160a01b031683529284019291840191600101612f78565b50909695505050505050565b803560ff81168114612fba57600080fd5b919050565b600080600080600060a08688031215612fd757600080fd5b8535612fe281612d2c565b9450612ff060208701612fa9565b9350604086013563ffffffff8116811461300957600080fd5b94979396509394606081013594506080013592915050565b600080600080600080600060e0888a03121561303c57600080fd5b873561304781612d2c565b965061305560208901612fa9565b955061306360408901612fa9565b945061307160608901612fa9565b935061307f60808901612fa9565b925060a0880135915060c0880135905092959891949750929550565b6000806000604084860312156130b057600080fd5b83356130bb81612d2c565b9250602084013567ffffffffffffffff808211156130d857600080fd5b818601915086601f8301126130ec57600080fd5b8135818111156130fb57600080fd5b8760208260051b850101111561311057600080fd5b6020830194508093505050509250925092565b634e487b7160e01b600052601160045260246000fd5b8181038181111561166757611667613123565b634e487b7160e01b600052603260045260246000fd5b63ffffffff82811682821603908082111561317f5761317f613123565b5092915050565b634e487b7160e01b600052601260045260246000fd5b600063ffffffff808416806131b3576131b3613186565b92169190910492915050565b6000826131ce576131ce613186565b500490565b808202811582820484141761166757611667613123565b6000602082840312156131fc57600080fd5b5051919050565b60006020828403121561321557600080fd5b8151801515811461167957600080fd5b8082018082111561166757611667613123565b60ff818116838216019081111561166757611667613123565b60ff828116828216039081111561166757611667613123565b60006001820161327c5761327c613123565b5060010190565b60208082526006908201526510b7bbb732b960d11b604082015260600190565b6000602082840312156132b557600080fd5b815161167981612d2c565b63ffffffff81811683821601908082111561317f5761317f61312356fea26469706673582212203107efd9a036353e32e0a4eabee834a686f9b43e824b35a629c9165b40c5044f64736f6c63430008110033",
			"opcodes": "PUSH1 0x80 PUSH1 0x40 MSTORE CALLVALUE DUP1 ISZERO PUSH2 0x10 JUMPI PUSH1 0x0 DUP1 REVERT JUMPDEST POP PUSH1 0x0 DUP1 SLOAD PUSH1 0x1 PUSH1 0x1 PUSH1 0xA0 SHL SUB NOT AND CALLER SWAP1 DUP2 OR DUP3 SSTORE PUSH1 0x40 MLOAD SWAP1 SWAP2 DUP3 SWAP2 PUSH32 0x8BE0079C531659141344CD1FD0A4F28419497F9722A3DAAFE3B4186F6B6457E0 SWAP1 DUP3 SWAP1 LOG3 POP PUSH2 0x3313 DUP1 PUSH2 0x61 PUSH1 0x0 CODECOPY PUSH1 0x0 RETURN INVALID PUSH1 0x80 PUSH1 0x40 MSTORE PUSH1 0x4 CALLDATASIZE LT PUSH2 0x1A0 JUMPI PUSH1 0x0 CALLDATALOAD PUSH1 0xE0 SHR DUP1 PUSH4 0xA039B403 GT PUSH2 0xEC JUMPI DUP1 PUSH4 0xE7334FE5 GT PUSH2 0x8A JUMPI DUP1 PUSH4 0xF53FA632 GT PUSH2 0x64 JUMPI DUP1 PUSH4 0xF53FA632 EQ PUSH2 0x4A6 JUMPI DUP1 PUSH4 0xF6F32206 EQ PUSH2 0x4BB JUMPI DUP1 PUSH4 0xFAE92612 EQ PUSH2 0x54B JUMPI DUP1 PUSH4 0xFC81F3EC EQ PUSH2 0x56B JUMPI PUSH1 0x0 DUP1 REVERT JUMPDEST DUP1 PUSH4 0xE7334FE5 EQ PUSH2 0x453 JUMPI DUP1 PUSH4 0xE9079245 EQ PUSH2 0x471 JUMPI DUP1 PUSH4 0xF2FDE38B EQ PUSH2 0x486 JUMPI PUSH1 0x0 DUP1 REVERT JUMPDEST DUP1 PUSH4 0xB8522043 GT PUSH2 0xC6 JUMPI DUP1 PUSH4 0xB8522043 EQ PUSH2 0x3DC JUMPI DUP1 PUSH4 0xD0C5C585 EQ PUSH2 0x3FE JUMPI DUP1 PUSH4 0xDD3BCC15 EQ PUSH2 0x413 JUMPI DUP1 PUSH4 0xDD4A470E EQ PUSH2 0x433 JUMPI PUSH1 0x0 DUP1 REVERT JUMPDEST DUP1 PUSH4 0xA039B403 EQ PUSH2 0x389 JUMPI DUP1 PUSH4 0xA84B52A5 EQ PUSH2 0x39E JUMPI DUP1 PUSH4 0xAF0D3B9A EQ PUSH2 0x3BE JUMPI PUSH1 0x0 DUP1 REVERT JUMPDEST DUP1 PUSH4 0x542D3F1C GT PUSH2 0x159 JUMPI DUP1 PUSH4 0x715018A6 GT PUSH2 0x133 JUMPI DUP1 PUSH4 0x715018A6 EQ PUSH2 0x317 JUMPI DUP1 PUSH4 0x7371DA0D EQ PUSH2 0x32C JUMPI DUP1 PUSH4 0x78687A4E EQ PUSH2 0x341 JUMPI DUP1 PUSH4 0x8DA5CB5B EQ PUSH2 0x357 JUMPI PUSH1 0x0 DUP1 REVERT JUMPDEST DUP1 PUSH4 0x542D3F1C EQ PUSH2 0x2A7 JUMPI DUP1 PUSH4 0x5618F47A EQ PUSH2 0x2D5 JUMPI DUP1 PUSH4 0x6386C1C7 EQ PUSH2 0x2EA JUMPI PUSH1 0x0 DUP1 REVERT JUMPDEST DUP1 PUSH4 0x174DB7BB EQ PUSH2 0x1AC JUMPI DUP1 PUSH4 0x1BC1A64B EQ PUSH2 0x1EE JUMPI DUP1 PUSH4 0x3D103B97 EQ PUSH2 0x213 JUMPI DUP1 PUSH4 0x3F3A6783 EQ PUSH2 0x233 JUMPI DUP1 PUSH4 0x4B13B990 EQ PUSH2 0x253 JUMPI DUP1 PUSH4 0x53EDD8F7 EQ PUSH2 0x285 JUMPI PUSH1 0x0 DUP1 REVERT JUMPDEST CALLDATASIZE PUSH2 0x1A7 JUMPI STOP JUMPDEST PUSH1 0x0 DUP1 REVERT JUMPDEST CALLVALUE DUP1 ISZERO PUSH2 0x1B8 JUMPI PUSH1 0x0 DUP1 REVERT JUMPDEST POP PUSH2 0x1CC PUSH2 0x1C7 CALLDATASIZE PUSH1 0x4 PUSH2 0x2D41 JUMP JUMPDEST PUSH2 0x58B JUMP JUMPDEST PUSH1 0x40 DUP1 MLOAD SWAP4 DUP5 MSTORE PUSH1 0x20 DUP5 ADD SWAP3 SWAP1 SWAP3 MSTORE ISZERO ISZERO SWAP1 DUP3 ADD MSTORE PUSH1 0x60 ADD JUMPDEST PUSH1 0x40 MLOAD DUP1 SWAP2 SUB SWAP1 RETURN JUMPDEST CALLVALUE DUP1 ISZERO PUSH2 0x1FA JUMPI PUSH1 0x0 DUP1 REVERT JUMPDEST POP PUSH2 0x203 PUSH2 0x7F4 JUMP JUMPDEST PUSH1 0x40 MLOAD SWAP1 ISZERO ISZERO DUP2 MSTORE PUSH1 0x20 ADD PUSH2 0x1E5 JUMP JUMPDEST CALLVALUE DUP1 ISZERO PUSH2 0x21F JUMPI PUSH1 0x0 DUP1 REVERT JUMPDEST POP PUSH2 0x203 PUSH2 0x22E CALLDATASIZE PUSH1 0x4 PUSH2 0x2D5E JUMP JUMPDEST PUSH2 0x8B9 JUMP JUMPDEST CALLVALUE DUP1 ISZERO PUSH2 0x23F JUMPI PUSH1 0x0 DUP1 REVERT JUMPDEST POP PUSH2 0x203 PUSH2 0x24E CALLDATASIZE PUSH1 0x4 PUSH2 0x2D8E JUMP JUMPDEST PUSH2 0x166D JUMP JUMPDEST CALLVALUE DUP1 ISZERO PUSH2 0x25F JUMPI PUSH1 0x0 DUP1 REVERT JUMPDEST POP PUSH2 0x273 PUSH2 0x26E CALLDATASIZE PUSH1 0x4 PUSH2 0x2D41 JUMP JUMPDEST PUSH2 0x1680 JUMP JUMPDEST PUSH1 0x40 MLOAD PUSH1 0xFF SWAP1 SWAP2 AND DUP2 MSTORE PUSH1 0x20 ADD PUSH2 0x1E5 JUMP JUMPDEST CALLVALUE DUP1 ISZERO PUSH2 0x291 JUMPI PUSH1 0x0 DUP1 REVERT JUMPDEST POP PUSH2 0x2A5 PUSH2 0x2A0 CALLDATASIZE PUSH1 0x4 PUSH2 0x2DBC JUMP JUMPDEST PUSH2 0x19E5 JUMP JUMPDEST STOP JUMPDEST CALLVALUE DUP1 ISZERO PUSH2 0x2B3 JUMPI PUSH1 0x0 DUP1 REVERT JUMPDEST POP PUSH2 0x2C7 PUSH2 0x2C2 CALLDATASIZE PUSH1 0x4 PUSH2 0x2D41 JUMP JUMPDEST PUSH2 0x1A61 JUMP JUMPDEST PUSH1 0x40 MLOAD SWAP1 DUP2 MSTORE PUSH1 0x20 ADD PUSH2 0x1E5 JUMP JUMPDEST CALLVALUE DUP1 ISZERO PUSH2 0x2E1 JUMPI PUSH1 0x0 DUP1 REVERT JUMPDEST POP PUSH2 0x2A5 PUSH2 0x1A6E JUMP JUMPDEST CALLVALUE DUP1 ISZERO PUSH2 0x2F6 JUMPI PUSH1 0x0 DUP1 REVERT JUMPDEST POP PUSH2 0x30A PUSH2 0x305 CALLDATASIZE PUSH1 0x4 PUSH2 0x2D41 JUMP JUMPDEST PUSH2 0x1D5A JUMP JUMPDEST PUSH1 0x40 MLOAD PUSH2 0x1E5 SWAP2 SWAP1 PUSH2 0x2E84 JUMP JUMPDEST CALLVALUE DUP1 ISZERO PUSH2 0x323 JUMPI PUSH1 0x0 DUP1 REVERT JUMPDEST POP PUSH2 0x2A5 PUSH2 0x1F4D JUMP JUMPDEST CALLVALUE DUP1 ISZERO PUSH2 0x338 JUMPI PUSH1 0x0 DUP1 REVERT JUMPDEST POP PUSH2 0x2A5 PUSH2 0x1FC1 JUMP JUMPDEST CALLVALUE DUP1 ISZERO PUSH2 0x34D JUMPI PUSH1 0x0 DUP1 REVERT JUMPDEST POP PUSH2 0x2C7 PUSH1 0x2 SLOAD DUP2 JUMP JUMPDEST CALLVALUE DUP1 ISZERO PUSH2 0x363 JUMPI PUSH1 0x0 DUP1 REVERT JUMPDEST POP PUSH1 0x0 SLOAD PUSH1 0x1 PUSH1 0x1 PUSH1 0xA0 SHL SUB AND JUMPDEST PUSH1 0x40 MLOAD PUSH1 0x1 PUSH1 0x1 PUSH1 0xA0 SHL SUB SWAP1 SWAP2 AND DUP2 MSTORE PUSH1 0x20 ADD PUSH2 0x1E5 JUMP JUMPDEST CALLVALUE DUP1 ISZERO PUSH2 0x395 JUMPI PUSH1 0x0 DUP1 REVERT JUMPDEST POP PUSH2 0x2A5 PUSH2 0x210B JUMP JUMPDEST CALLVALUE DUP1 ISZERO PUSH2 0x3AA JUMPI PUSH1 0x0 DUP1 REVERT JUMPDEST POP PUSH2 0x2A5 PUSH2 0x3B9 CALLDATASIZE PUSH1 0x4 PUSH2 0x2D41 JUMP JUMPDEST PUSH2 0x222F JUMP JUMPDEST CALLVALUE DUP1 ISZERO PUSH2 0x3CA JUMPI PUSH1 0x0 DUP1 REVERT JUMPDEST POP PUSH1 0x7 SLOAD PUSH1 0x1 PUSH1 0x1 PUSH1 0xA0 SHL SUB AND PUSH2 0x371 JUMP JUMPDEST CALLVALUE DUP1 ISZERO PUSH2 0x3E8 JUMPI PUSH1 0x0 DUP1 REVERT JUMPDEST POP PUSH2 0x3F1 PUSH2 0x256B JUMP JUMPDEST PUSH1 0x40 MLOAD PUSH2 0x1E5 SWAP2 SWAP1 PUSH2 0x2F5C JUMP JUMPDEST CALLVALUE DUP1 ISZERO PUSH2 0x40A JUMPI PUSH1 0x0 DUP1 REVERT JUMPDEST POP PUSH1 0x3 SLOAD PUSH2 0x2C7 JUMP JUMPDEST CALLVALUE DUP1 ISZERO PUSH2 0x41F JUMPI PUSH1 0x0 DUP1 REVERT JUMPDEST POP PUSH2 0x2A5 PUSH2 0x42E CALLDATASIZE PUSH1 0x4 PUSH2 0x2FBF JUMP JUMPDEST PUSH2 0x25CD JUMP JUMPDEST CALLVALUE DUP1 ISZERO PUSH2 0x43F JUMPI PUSH1 0x0 DUP1 REVERT JUMPDEST POP PUSH2 0x2C7 PUSH2 0x44E CALLDATASIZE PUSH1 0x4 PUSH2 0x2D41 JUMP JUMPDEST PUSH2 0x263E JUMP JUMPDEST CALLVALUE DUP1 ISZERO PUSH2 0x45F JUMPI PUSH1 0x0 DUP1 REVERT JUMPDEST POP PUSH1 0x5 SLOAD PUSH1 0x1 PUSH1 0x1 PUSH1 0xA0 SHL SUB AND PUSH2 0x371 JUMP JUMPDEST CALLVALUE DUP1 ISZERO PUSH2 0x47D JUMPI PUSH1 0x0 DUP1 REVERT JUMPDEST POP PUSH1 0x1 SLOAD PUSH2 0x2C7 JUMP JUMPDEST CALLVALUE DUP1 ISZERO PUSH2 0x492 JUMPI PUSH1 0x0 DUP1 REVERT JUMPDEST POP PUSH2 0x2A5 PUSH2 0x4A1 CALLDATASIZE PUSH1 0x4 PUSH2 0x2D41 JUMP JUMPDEST PUSH2 0x264B JUMP JUMPDEST CALLVALUE DUP1 ISZERO PUSH2 0x4B2 JUMPI PUSH1 0x0 DUP1 REVERT JUMPDEST POP PUSH2 0x2A5 PUSH2 0x2711 JUMP JUMPDEST CALLVALUE DUP1 ISZERO PUSH2 0x4C7 JUMPI PUSH1 0x0 DUP1 REVERT JUMPDEST POP PUSH2 0x2A5 PUSH2 0x4D6 CALLDATASIZE PUSH1 0x4 PUSH2 0x3021 JUMP JUMPDEST PUSH1 0x1 PUSH1 0x1 PUSH1 0xA0 SHL SUB SWAP1 SWAP7 AND PUSH1 0x0 SWAP1 DUP2 MSTORE PUSH1 0x9 PUSH1 0x20 MSTORE PUSH1 0x40 SWAP1 KECCAK256 DUP1 SLOAD PUSH1 0xFF SWAP4 DUP5 AND PUSH4 0x1000000 MUL PUSH4 0xFF000000 NOT SWAP6 DUP6 AND PUSH3 0x10000 MUL SWAP6 SWAP1 SWAP6 AND PUSH4 0xFFFF0000 NOT SWAP7 DUP6 AND PUSH2 0x100 MUL PUSH2 0xFFFF NOT SWAP1 SWAP3 AND SWAP5 SWAP1 SWAP8 AND SWAP4 DUP5 OR OR SWAP5 SWAP1 SWAP5 AND SWAP5 SWAP1 SWAP5 OR SWAP2 SWAP1 SWAP2 OR PUSH1 0xFF NOT AND OR DUP2 SSTORE PUSH1 0x3 DUP2 ADD SWAP2 SWAP1 SWAP2 SSTORE PUSH1 0x4 ADD SSTORE JUMP JUMPDEST CALLVALUE DUP1 ISZERO PUSH2 0x557 JUMPI PUSH1 0x0 DUP1 REVERT JUMPDEST POP PUSH2 0x2A5 PUSH2 0x566 CALLDATASIZE PUSH1 0x4 PUSH2 0x2D41 JUMP JUMPDEST PUSH2 0x274D JUMP JUMPDEST CALLVALUE DUP1 ISZERO PUSH2 0x577 JUMPI PUSH1 0x0 DUP1 REVERT JUMPDEST POP PUSH2 0x2A5 PUSH2 0x586 CALLDATASIZE PUSH1 0x4 PUSH2 0x309B JUMP JUMPDEST PUSH2 0x2799 JUMP JUMPDEST PUSH1 0x1 PUSH1 0x1 PUSH1 0xA0 SHL SUB DUP1 DUP3 AND PUSH1 0x0 SWAP1 DUP2 MSTORE PUSH1 0x9 PUSH1 0x20 SWAP1 DUP2 MSTORE PUSH1 0x40 DUP1 DUP4 KECCAK256 DUP2 MLOAD PUSH2 0x160 DUP2 ADD DUP4 MSTORE DUP2 SLOAD PUSH1 0xFF DUP1 DUP3 AND DUP4 MSTORE PUSH2 0x100 DUP1 DUP4 DIV DUP3 AND DUP5 DUP9 ADD MSTORE PUSH3 0x10000 DUP4 DIV DUP3 AND DUP5 DUP8 ADD MSTORE PUSH4 0x1000000 SWAP1 SWAP3 DIV AND PUSH1 0x60 DUP4 ADD MSTORE PUSH1 0x1 DUP4 ADD SLOAD PUSH1 0x80 DUP4 ADD MSTORE PUSH1 0x2 DUP4 ADD SLOAD PUSH1 0xA0 DUP4 ADD MSTORE PUSH1 0x3 DUP4 ADD SLOAD PUSH1 0xC0 DUP4 ADD MSTORE PUSH1 0x4 DUP4 ADD SLOAD PUSH1 0xE0 DUP4 ADD MSTORE PUSH1 0x5 DUP4 ADD SLOAD SWAP1 SWAP7 AND SWAP6 DUP2 ADD SWAP6 SWAP1 SWAP6 MSTORE PUSH1 0x6 DUP2 ADD DUP1 SLOAD DUP4 MLOAD DUP2 DUP7 MUL DUP2 ADD DUP7 ADD SWAP1 SWAP5 MSTORE DUP1 DUP5 MSTORE SWAP5 SWAP6 DUP7 SWAP6 DUP7 SWAP6 DUP7 SWAP6 SWAP3 SWAP5 SWAP4 PUSH2 0x120 DUP7 ADD SWAP4 SWAP3 SWAP1 SWAP2 DUP4 ADD DUP3 DUP3 DUP1 ISZERO PUSH2 0x678 JUMPI PUSH1 0x20 MUL DUP3 ADD SWAP2 SWAP1 PUSH1 0x0 MSTORE PUSH1 0x20 PUSH1 0x0 KECCAK256 SWAP1 JUMPDEST DUP2 SLOAD PUSH1 0x1 PUSH1 0x1 PUSH1 0xA0 SHL SUB AND DUP2 MSTORE PUSH1 0x1 SWAP1 SWAP2 ADD SWAP1 PUSH1 0x20 ADD DUP1 DUP4 GT PUSH2 0x65A JUMPI JUMPDEST POP POP POP POP POP DUP2 MSTORE PUSH1 0x20 ADD PUSH1 0x7 DUP3 ADD DUP1 SLOAD DUP1 PUSH1 0x20 MUL PUSH1 0x20 ADD PUSH1 0x40 MLOAD SWAP1 DUP2 ADD PUSH1 0x40 MSTORE DUP1 SWAP3 SWAP2 SWAP1 DUP2 DUP2 MSTORE PUSH1 0x20 ADD PUSH1 0x0 SWAP1 JUMPDEST DUP3 DUP3 LT ISZERO PUSH2 0x706 JUMPI PUSH1 0x0 DUP5 DUP2 MSTORE PUSH1 0x20 SWAP1 DUP2 SWAP1 KECCAK256 PUSH1 0x40 DUP1 MLOAD PUSH1 0x80 DUP2 ADD DUP3 MSTORE PUSH1 0x3 DUP7 MUL SWAP1 SWAP3 ADD DUP1 SLOAD PUSH1 0xFF DUP2 AND ISZERO ISZERO DUP5 MSTORE PUSH2 0x100 SWAP1 DIV PUSH4 0xFFFFFFFF AND DUP4 DUP6 ADD MSTORE PUSH1 0x1 DUP1 DUP3 ADD SLOAD SWAP3 DUP5 ADD SWAP3 SWAP1 SWAP3 MSTORE PUSH1 0x2 ADD SLOAD PUSH1 0x60 DUP4 ADD MSTORE SWAP1 DUP4 MSTORE SWAP1 SWAP3 ADD SWAP2 ADD PUSH2 0x6A6 JUMP JUMPDEST POP POP POP SWAP2 MSTORE POP POP PUSH2 0x140 DUP2 ADD MLOAD MLOAD SWAP1 SWAP2 POP ISZERO PUSH2 0x7EC JUMPI PUSH2 0x140 DUP2 ADD MLOAD DUP1 MLOAD PUSH1 0x0 SWAP2 SWAP1 PUSH2 0x734 SWAP1 PUSH1 0x1 SWAP1 PUSH2 0x3139 JUMP JUMPDEST DUP2 MLOAD DUP2 LT PUSH2 0x744 JUMPI PUSH2 0x744 PUSH2 0x314C JUMP JUMPDEST PUSH1 0x20 MUL PUSH1 0x20 ADD ADD MLOAD SWAP1 POP PUSH1 0x0 PUSH3 0x15180 DUP3 PUSH1 0x20 ADD MLOAD TIMESTAMP PUSH2 0x764 SWAP2 SWAP1 PUSH2 0x3162 JUMP JUMPDEST PUSH2 0x76E SWAP2 SWAP1 PUSH2 0x319C JUMP JUMPDEST SWAP1 POP PUSH1 0x64 DUP2 PUSH4 0xFFFFFFFF AND LT PUSH2 0x786 JUMPI POP PUSH1 0x1 SWAP3 POP PUSH1 0x64 JUMPDEST DUP1 PUSH4 0xFFFFFFFF AND PUSH1 0x1 SLOAD PUSH1 0x32 DUP5 PUSH1 0x40 ADD MLOAD PUSH2 0x7A1 SWAP2 SWAP1 PUSH2 0x31BF JUMP JUMPDEST PUSH2 0x7AB SWAP2 SWAP1 PUSH2 0x31BF JUMP JUMPDEST PUSH2 0x7B5 SWAP2 SWAP1 PUSH2 0x31D3 JUMP JUMPDEST SWAP6 POP DUP2 PUSH1 0x60 ADD MLOAD DUP7 LT ISZERO PUSH2 0x7CB JUMPI DUP2 PUSH1 0x60 ADD MLOAD SWAP6 POP JUMPDEST DUP2 PUSH1 0x60 ADD MLOAD DUP7 GT ISZERO PUSH2 0x7E9 JUMPI PUSH1 0x60 DUP3 ADD MLOAD PUSH2 0x7E6 SWAP1 DUP8 PUSH2 0x3139 JUMP JUMPDEST SWAP5 POP JUMPDEST POP POP JUMPDEST POP SWAP2 SWAP4 SWAP1 SWAP3 POP JUMP JUMPDEST CALLER PUSH1 0x0 DUP2 DUP2 MSTORE PUSH1 0x9 PUSH1 0x20 MSTORE PUSH1 0x40 DUP2 KECCAK256 SWAP1 SWAP2 DUP3 SWAP1 PUSH2 0x810 SWAP1 PUSH2 0x1680 JUMP JUMPDEST DUP3 SLOAD SWAP1 SWAP2 POP PUSH1 0xFF PUSH4 0x1000000 SWAP1 SWAP2 DIV DUP2 AND SWAP1 DUP3 AND GT PUSH2 0x892 JUMPI PUSH1 0x40 MLOAD PUSH3 0x461BCD PUSH1 0xE5 SHL DUP2 MSTORE PUSH1 0x20 PUSH1 0x4 DUP3 ADD MSTORE PUSH1 0x33 PUSH1 0x24 DUP3 ADD MSTORE PUSH32 0x554E4D5320757067726164654C6576656C5261746528293A2063616E206E6F74 PUSH1 0x44 DUP3 ADD MSTORE PUSH19 0x2075706772616465206C6576656C2072617465 PUSH1 0x68 SHL PUSH1 0x64 DUP3 ADD MSTORE PUSH1 0x84 ADD JUMPDEST PUSH1 0x40 MLOAD DUP1 SWAP2 SUB SWAP1 REVERT JUMPDEST DUP2 SLOAD PUSH4 0xFF000000 NOT AND PUSH4 0x1000000 PUSH1 0xFF DUP4 AND MUL OR DUP3 SSTORE PUSH2 0x8B0 PUSH2 0x283A JUMP JUMPDEST PUSH1 0x1 SWAP3 POP POP POP SWAP1 JUMP JUMPDEST PUSH1 0x0 DUP3 PUSH9 0x56BC75E2D63100000 EQ DUP1 PUSH2 0x8DA JUMPI POP DUP3 PUSH9 0x1B1AE4D6E2EF500000 EQ JUMPDEST DUP1 PUSH2 0x8ED JUMPI POP DUP3 PUSH9 0x3635C9ADC5DEA00000 EQ JUMPDEST PUSH2 0x952 JUMPI PUSH1 0x40 MLOAD PUSH3 0x461BCD PUSH1 0xE5 SHL DUP2 MSTORE PUSH1 0x20 PUSH1 0x4 DUP3 ADD MSTORE PUSH1 0x30 PUSH1 0x24 DUP3 ADD MSTORE PUSH32 0x554E4D532062757928293A20616D6F756E742073686F756C6420626520313030 PUSH1 0x44 DUP3 ADD MSTORE PUSH16 0x206F7220353030206F72203130303055 PUSH1 0x80 SHL PUSH1 0x64 DUP3 ADD MSTORE PUSH1 0x84 ADD PUSH2 0x889 JUMP JUMPDEST PUSH1 0x1 PUSH1 0x1 PUSH1 0xA0 SHL SUB DUP3 AND ISZERO PUSH2 0x9C9 JUMPI PUSH1 0x1 PUSH1 0x1 PUSH1 0xA0 SHL SUB DUP3 AND PUSH1 0x0 SWAP1 DUP2 MSTORE PUSH1 0x9 PUSH1 0x20 MSTORE PUSH1 0x40 SWAP1 KECCAK256 PUSH1 0x7 ADD SLOAD PUSH2 0x9C9 JUMPI PUSH1 0x40 MLOAD PUSH3 0x461BCD PUSH1 0xE5 SHL DUP2 MSTORE PUSH1 0x20 PUSH1 0x4 DUP3 ADD MSTORE PUSH1 0x1B PUSH1 0x24 DUP3 ADD MSTORE PUSH32 0x554E4D532062757928293A20706172656E74206E6F206F726465720000000000 PUSH1 0x44 DUP3 ADD MSTORE PUSH1 0x64 ADD PUSH2 0x889 JUMP JUMPDEST PUSH1 0x6 SLOAD PUSH1 0x40 MLOAD PUSH4 0x70A08231 PUSH1 0xE0 SHL DUP2 MSTORE CALLER PUSH1 0x4 DUP3 ADD DUP2 SWAP1 MSTORE SWAP2 DUP6 SWAP2 PUSH1 0x1 PUSH1 0x1 PUSH1 0xA0 SHL SUB SWAP1 SWAP2 AND SWAP1 PUSH4 0x70A08231 SWAP1 PUSH1 0x24 ADD PUSH1 0x20 PUSH1 0x40 MLOAD DUP1 DUP4 SUB DUP2 DUP7 GAS STATICCALL ISZERO DUP1 ISZERO PUSH2 0xA16 JUMPI RETURNDATASIZE PUSH1 0x0 DUP1 RETURNDATACOPY RETURNDATASIZE PUSH1 0x0 REVERT JUMPDEST POP POP POP POP PUSH1 0x40 MLOAD RETURNDATASIZE PUSH1 0x1F NOT PUSH1 0x1F DUP3 ADD AND DUP3 ADD DUP1 PUSH1 0x40 MSTORE POP DUP2 ADD SWAP1 PUSH2 0xA3A SWAP2 SWAP1 PUSH2 0x31EA JUMP JUMPDEST LT ISZERO PUSH2 0xA99 JUMPI PUSH1 0x40 MLOAD PUSH3 0x461BCD PUSH1 0xE5 SHL DUP2 MSTORE PUSH1 0x20 PUSH1 0x4 DUP3 ADD MSTORE PUSH1 0x28 PUSH1 0x24 DUP3 ADD MSTORE PUSH32 0x554E4D532062757928293A20696E73756666696369656E742062616C616E6365 PUSH1 0x44 DUP3 ADD MSTORE PUSH8 0x81BD9881554D115 PUSH1 0xC2 SHL PUSH1 0x64 DUP3 ADD MSTORE PUSH1 0x84 ADD PUSH2 0x889 JUMP JUMPDEST PUSH1 0x1 PUSH1 0x1 PUSH1 0xA0 SHL SUB DUP2 AND PUSH1 0x0 SWAP1 DUP2 MSTORE PUSH1 0x9 PUSH1 0x20 MSTORE PUSH1 0x40 DUP2 KECCAK256 PUSH1 0x7 DUP2 ADD SLOAD SWAP1 SWAP2 SUB PUSH2 0xB1C JUMPI DUP1 SLOAD PUSH3 0xFFFFFF NOT AND PUSH3 0x20A05 OR DUP2 SSTORE PUSH1 0xA DUP1 SLOAD PUSH1 0x1 DUP2 ADD DUP3 SSTORE PUSH1 0x0 SWAP2 SWAP1 SWAP2 MSTORE PUSH32 0xC65A7BB8D6351C1CF70C95A316CC6A92839C986682D98BC35F958F4883F9D2A8 ADD DUP1 SLOAD PUSH1 0x1 PUSH1 0x1 PUSH1 0xA0 SHL SUB NOT AND PUSH1 0x1 PUSH1 0x1 PUSH1 0xA0 SHL SUB DUP5 AND OR SWAP1 SSTORE PUSH2 0xBAF JUMP JUMPDEST PUSH1 0x7 DUP2 ADD DUP1 SLOAD PUSH2 0xB2E SWAP1 PUSH1 0x1 SWAP1 PUSH2 0x3139 JUMP JUMPDEST DUP2 SLOAD DUP2 LT PUSH2 0xB3E JUMPI PUSH2 0xB3E PUSH2 0x314C JUMP JUMPDEST PUSH1 0x0 SWAP2 DUP3 MSTORE PUSH1 0x20 SWAP1 SWAP2 KECCAK256 PUSH1 0x3 SWAP1 SWAP2 MUL ADD SLOAD PUSH1 0xFF AND ISZERO ISZERO PUSH1 0x1 EQ PUSH2 0xBAF JUMPI PUSH1 0x40 MLOAD PUSH3 0x461BCD PUSH1 0xE5 SHL DUP2 MSTORE PUSH1 0x20 PUSH1 0x4 DUP3 ADD MSTORE PUSH1 0x23 PUSH1 0x24 DUP3 ADD MSTORE PUSH32 0x554E4D532062757928293A206C617374206F72646572206973206E6F7420636C PUSH1 0x44 DUP3 ADD MSTORE PUSH3 0x32B0B9 PUSH1 0xE9 SHL PUSH1 0x64 DUP3 ADD MSTORE PUSH1 0x84 ADD PUSH2 0x889 JUMP JUMPDEST PUSH2 0xBB7 PUSH2 0x283A JUMP JUMPDEST PUSH1 0x6 SLOAD PUSH1 0x8 SLOAD PUSH1 0x40 MLOAD PUSH4 0x23B872DD PUSH1 0xE0 SHL DUP2 MSTORE PUSH1 0x1 PUSH1 0x1 PUSH1 0xA0 SHL SUB DUP6 DUP2 AND PUSH1 0x4 DUP4 ADD MSTORE SWAP2 DUP3 AND PUSH1 0x24 DUP3 ADD MSTORE PUSH1 0x44 DUP2 ADD DUP9 SWAP1 MSTORE SWAP2 AND SWAP1 PUSH4 0x23B872DD SWAP1 PUSH1 0x64 ADD PUSH1 0x20 PUSH1 0x40 MLOAD DUP1 DUP4 SUB DUP2 PUSH1 0x0 DUP8 GAS CALL ISZERO DUP1 ISZERO PUSH2 0xC14 JUMPI RETURNDATASIZE PUSH1 0x0 DUP1 RETURNDATACOPY RETURNDATASIZE PUSH1 0x0 REVERT JUMPDEST POP POP POP POP PUSH1 0x40 MLOAD RETURNDATASIZE PUSH1 0x1F NOT PUSH1 0x1F DUP3 ADD AND DUP3 ADD DUP1 PUSH1 0x40 MSTORE POP DUP2 ADD SWAP1 PUSH2 0xC38 SWAP2 SWAP1 PUSH2 0x3203 JUMP JUMPDEST POP PUSH1 0x8 PUSH1 0x0 SWAP1 SLOAD SWAP1 PUSH2 0x100 EXP SWAP1 DIV PUSH1 0x1 PUSH1 0x1 PUSH1 0xA0 SHL SUB AND PUSH1 0x1 PUSH1 0x1 PUSH1 0xA0 SHL SUB AND PUSH4 0xFFF6CAE9 PUSH1 0x40 MLOAD DUP2 PUSH4 0xFFFFFFFF AND PUSH1 0xE0 SHL DUP2 MSTORE PUSH1 0x4 ADD PUSH1 0x0 PUSH1 0x40 MLOAD DUP1 DUP4 SUB DUP2 PUSH1 0x0 DUP8 DUP1 EXTCODESIZE ISZERO DUP1 ISZERO PUSH2 0xC89 JUMPI PUSH1 0x0 DUP1 REVERT JUMPDEST POP GAS CALL ISZERO DUP1 ISZERO PUSH2 0xC9D JUMPI RETURNDATASIZE PUSH1 0x0 DUP1 RETURNDATACOPY RETURNDATASIZE PUSH1 0x0 REVERT JUMPDEST POP POP PUSH1 0x40 DUP1 MLOAD PUSH1 0x80 DUP2 ADD DUP3 MSTORE PUSH1 0x0 DUP1 DUP3 MSTORE PUSH4 0xFFFFFFFF TIMESTAMP DUP2 AND PUSH1 0x20 DUP1 DUP6 ADD SWAP2 DUP3 MSTORE SWAP5 DUP5 ADD DUP13 DUP2 MSTORE PUSH1 0x60 DUP6 ADD DUP5 DUP2 MSTORE PUSH1 0x7 DUP11 ADD DUP1 SLOAD PUSH1 0x1 DUP2 DUP2 ADD DUP4 SSTORE SWAP2 DUP8 MSTORE SWAP8 DUP7 KECCAK256 SWAP7 MLOAD PUSH1 0x3 SWAP1 SWAP9 MUL SWAP1 SWAP7 ADD DUP1 SLOAD SWAP4 MLOAD SWAP1 SWAP5 AND PUSH2 0x100 MUL PUSH5 0xFFFFFFFF00 NOT SWAP8 ISZERO ISZERO SWAP8 SWAP1 SWAP8 AND PUSH5 0xFFFFFFFFFF NOT SWAP1 SWAP4 AND SWAP3 SWAP1 SWAP3 OR SWAP6 SWAP1 SWAP6 OR DUP3 SSTORE SWAP4 MLOAD DUP2 DUP5 ADD SSTORE SWAP3 MLOAD PUSH1 0x2 SWAP1 SWAP4 ADD SWAP3 SWAP1 SWAP3 SSTORE SLOAD SWAP1 SWAP3 POP SWAP1 POP PUSH2 0xD3E DUP8 PUSH8 0xDE0B6B3A7640000 PUSH2 0x31D3 JUMP JUMPDEST PUSH2 0xD48 SWAP2 SWAP1 PUSH2 0x31BF JUMP JUMPDEST PUSH1 0x7 SLOAD PUSH1 0x40 MLOAD PUSH4 0xA9059CBB PUSH1 0xE0 SHL DUP2 MSTORE PUSH2 0xDEAD PUSH1 0x4 DUP3 ADD MSTORE PUSH1 0x24 DUP2 ADD DUP4 SWAP1 MSTORE SWAP2 SWAP3 POP PUSH1 0x1 PUSH1 0x1 PUSH1 0xA0 SHL SUB AND SWAP1 PUSH4 0xA9059CBB SWAP1 PUSH1 0x44 ADD PUSH1 0x20 PUSH1 0x40 MLOAD DUP1 DUP4 SUB DUP2 PUSH1 0x0 DUP8 GAS CALL ISZERO DUP1 ISZERO PUSH2 0xD9C JUMPI RETURNDATASIZE PUSH1 0x0 DUP1 RETURNDATACOPY RETURNDATASIZE PUSH1 0x0 REVERT JUMPDEST POP POP POP POP PUSH1 0x40 MLOAD RETURNDATASIZE PUSH1 0x1F NOT PUSH1 0x1F DUP3 ADD AND DUP3 ADD DUP1 PUSH1 0x40 MSTORE POP DUP2 ADD SWAP1 PUSH2 0xDC0 SWAP2 SWAP1 PUSH2 0x3203 JUMP JUMPDEST POP DUP1 PUSH1 0x3 PUSH1 0x0 DUP3 DUP3 SLOAD PUSH2 0xDD3 SWAP2 SWAP1 PUSH2 0x3225 JUMP JUMPDEST SWAP1 SWAP2 SSTORE POP POP PUSH1 0x1 PUSH1 0x1 PUSH1 0xA0 SHL SUB DUP6 AND ISZERO DUP1 ISZERO SWAP1 PUSH2 0xDFB JUMPI POP PUSH1 0x5 DUP3 ADD SLOAD PUSH1 0x1 PUSH1 0x1 PUSH1 0xA0 SHL SUB AND ISZERO JUMPDEST DUP1 ISZERO PUSH2 0xE0E JUMPI POP PUSH2 0xE0C DUP4 DUP7 PUSH2 0x296C JUMP JUMPDEST ISZERO JUMPDEST ISZERO PUSH2 0xE66 JUMPI PUSH1 0x5 DUP3 ADD DUP1 SLOAD PUSH1 0x1 PUSH1 0x1 PUSH1 0xA0 SHL SUB NOT SWAP1 DUP2 AND PUSH1 0x1 PUSH1 0x1 PUSH1 0xA0 SHL SUB DUP9 DUP2 AND SWAP2 DUP3 OR SWAP1 SWAP4 SSTORE PUSH1 0x0 SWAP1 DUP2 MSTORE PUSH1 0x9 PUSH1 0x20 SWAP1 DUP2 MSTORE PUSH1 0x40 DUP3 KECCAK256 PUSH1 0x6 ADD DUP1 SLOAD PUSH1 0x1 DUP2 ADD DUP3 SSTORE SWAP1 DUP4 MSTORE SWAP2 KECCAK256 ADD DUP1 SLOAD SWAP1 SWAP2 AND SWAP2 DUP6 AND SWAP2 SWAP1 SWAP2 OR SWAP1 SSTORE JUMPDEST PUSH1 0x5 DUP3 ADD SLOAD PUSH1 0x1 PUSH1 0x1 PUSH1 0xA0 SHL SUB AND ISZERO PUSH2 0x165F JUMPI PUSH1 0x5 SWAP1 SWAP2 ADD SLOAD PUSH1 0x1 PUSH1 0x1 PUSH1 0xA0 SHL SUB AND PUSH1 0x0 DUP2 DUP2 MSTORE PUSH1 0x9 PUSH1 0x20 MSTORE PUSH1 0x40 DUP2 KECCAK256 PUSH1 0x1 DUP2 ADD DUP1 SLOAD SWAP2 SWAP5 SWAP4 SWAP3 DUP10 SWAP3 PUSH2 0xEAD SWAP1 DUP5 SWAP1 PUSH2 0x3225 JUMP JUMPDEST SWAP1 SWAP2 SSTORE POP POP DUP3 SLOAD PUSH4 0x1000000 SWAP1 DIV PUSH1 0xFF AND PUSH1 0x0 SUB PUSH2 0xEFF JUMPI DUP3 SLOAD PUSH1 0x64 SWAP1 PUSH2 0xED7 SWAP1 PUSH1 0xFF AND DUP5 PUSH2 0x31D3 JUMP JUMPDEST PUSH2 0xEE1 SWAP2 SWAP1 PUSH2 0x31BF JUMP JUMPDEST DUP4 PUSH1 0x3 ADD PUSH1 0x0 DUP3 DUP3 SLOAD PUSH2 0xEF4 SWAP2 SWAP1 PUSH2 0x3225 JUMP JUMPDEST SWAP1 SWAP2 SSTORE POP PUSH2 0xF4A SWAP1 POP JUMP JUMPDEST DUP3 SLOAD PUSH1 0x64 SWAP1 PUSH2 0xF1A SWAP1 PUSH1 0xFF PUSH4 0x1000000 DUP3 DIV DUP2 AND SWAP2 AND PUSH2 0x3238 JUMP JUMPDEST PUSH2 0xF27 SWAP1 PUSH1 0xFF AND DUP5 PUSH2 0x31D3 JUMP JUMPDEST PUSH2 0xF31 SWAP2 SWAP1 PUSH2 0x31BF JUMP JUMPDEST DUP4 PUSH1 0x3 ADD PUSH1 0x0 DUP3 DUP3 SLOAD PUSH2 0xF44 SWAP2 SWAP1 PUSH2 0x3225 JUMP JUMPDEST SWAP1 SWAP2 SSTORE POP POP JUMPDEST PUSH1 0x5 DUP4 ADD SLOAD PUSH1 0x1 PUSH1 0x1 PUSH1 0xA0 SHL SUB AND ISZERO PUSH2 0x165D JUMPI POP DUP2 SLOAD PUSH1 0x5 SWAP1 SWAP3 ADD SLOAD PUSH1 0x1 PUSH1 0x1 PUSH1 0xA0 SHL SUB AND PUSH1 0x0 DUP2 DUP2 MSTORE PUSH1 0x9 PUSH1 0x20 MSTORE PUSH1 0x40 DUP2 KECCAK256 PUSH1 0x2 DUP2 ADD DUP1 SLOAD SWAP2 SWAP6 PUSH4 0x1000000 SWAP1 DIV PUSH1 0xFF AND SWAP3 SWAP2 DUP11 SWAP2 SWAP1 DUP4 SWAP1 PUSH2 0xFA1 SWAP1 DUP5 SWAP1 PUSH2 0x3225 JUMP JUMPDEST SWAP1 SWAP2 SSTORE POP POP DUP5 SLOAD PUSH4 0x1000000 SWAP1 DIV PUSH1 0xFF AND ISZERO DUP1 PUSH2 0xFCC JUMPI POP DUP5 SLOAD PUSH1 0xFF DUP1 DUP5 AND PUSH4 0x1000000 SWAP1 SWAP3 DIV AND GT ISZERO JUMPDEST ISZERO PUSH2 0x106A JUMPI DUP5 SLOAD PUSH4 0x1000000 SWAP1 DIV PUSH1 0xFF AND PUSH1 0xA EQ DUP1 ISZERO PUSH2 0xFEF JUMPI POP DUP2 PUSH1 0xFF AND PUSH1 0xA EQ JUMPDEST DUP1 ISZERO PUSH2 0xFF9 JUMPI POP DUP1 ISZERO JUMPDEST ISZERO PUSH2 0x1053 JUMPI POP POP DUP3 SLOAD PUSH1 0xA SWAP1 PUSH1 0x1 SWAP1 PUSH1 0x64 SWAP1 PUSH2 0x101E SWAP1 PUSH2 0x100 SWAP1 DIV PUSH1 0xFF AND PUSH1 0x5 PUSH2 0x3238 JUMP JUMPDEST PUSH2 0x102B SWAP1 PUSH1 0xFF AND DUP7 PUSH2 0x31D3 JUMP JUMPDEST PUSH2 0x1035 SWAP2 SWAP1 PUSH2 0x31BF JUMP JUMPDEST DUP6 PUSH1 0x3 ADD PUSH1 0x0 DUP3 DUP3 SLOAD PUSH2 0x1048 SWAP2 SWAP1 PUSH2 0x3225 JUMP JUMPDEST SWAP1 SWAP2 SSTORE POP PUSH2 0x10D4 SWAP1 POP JUMP JUMPDEST DUP5 SLOAD PUSH1 0x64 SWAP1 PUSH2 0x102B SWAP1 PUSH2 0x100 SWAP1 DIV PUSH1 0xFF AND DUP7 PUSH2 0x31D3 JUMP JUMPDEST DUP5 SLOAD PUSH1 0x64 SWAP1 DUP4 SWAP1 PUSH2 0x108C SWAP1 PUSH1 0xFF PUSH4 0x1000000 DUP3 DIV DUP2 AND SWAP2 PUSH2 0x100 SWAP1 DIV AND PUSH2 0x3238 JUMP JUMPDEST PUSH2 0x1096 SWAP2 SWAP1 PUSH2 0x3251 JUMP JUMPDEST PUSH2 0x10A3 SWAP1 PUSH1 0xFF AND DUP7 PUSH2 0x31D3 JUMP JUMPDEST PUSH2 0x10AD SWAP2 SWAP1 PUSH2 0x31BF JUMP JUMPDEST DUP6 PUSH1 0x3 ADD PUSH1 0x0 DUP3 DUP3 SLOAD PUSH2 0x10C0 SWAP2 SWAP1 PUSH2 0x3225 JUMP JUMPDEST SWAP1 SWAP2 SSTORE POP POP DUP5 SLOAD PUSH4 0x1000000 SWAP1 DIV PUSH1 0xFF AND SWAP2 POP JUMPDEST PUSH1 0x5 DUP6 ADD SLOAD PUSH1 0x1 PUSH1 0x1 PUSH1 0xA0 SHL SUB AND ISZERO PUSH2 0x165A JUMPI PUSH1 0x5 SWAP1 SWAP5 ADD SLOAD PUSH1 0x1 PUSH1 0x1 PUSH1 0xA0 SHL SUB AND PUSH1 0x0 DUP2 DUP2 MSTORE PUSH1 0x9 PUSH1 0x20 MSTORE PUSH1 0x40 SWAP1 KECCAK256 DUP1 SLOAD SWAP1 SWAP6 SWAP2 SWAP4 POP PUSH1 0xFF PUSH4 0x1000000 SWAP1 SWAP2 DIV AND ISZERO DUP1 PUSH2 0x1130 JUMPI POP DUP5 SLOAD PUSH1 0xFF DUP1 DUP5 AND PUSH4 0x1000000 SWAP1 SWAP3 DIV AND GT ISZERO JUMPDEST ISZERO PUSH2 0x11D0 JUMPI DUP5 SLOAD PUSH4 0x1000000 SWAP1 DIV PUSH1 0xFF AND PUSH1 0xA EQ DUP1 ISZERO PUSH2 0x1153 JUMPI POP DUP2 PUSH1 0xFF AND PUSH1 0xA EQ JUMPDEST DUP1 ISZERO PUSH2 0x115D JUMPI POP DUP1 ISZERO JUMPDEST ISZERO PUSH2 0x11B8 JUMPI POP POP DUP3 SLOAD PUSH1 0xA SWAP1 PUSH1 0x1 SWAP1 PUSH1 0x64 SWAP1 PUSH2 0x1183 SWAP1 PUSH3 0x10000 SWAP1 DIV PUSH1 0xFF AND PUSH1 0x5 PUSH2 0x3238 JUMP JUMPDEST PUSH2 0x1190 SWAP1 PUSH1 0xFF AND DUP7 PUSH2 0x31D3 JUMP JUMPDEST PUSH2 0x119A SWAP2 SWAP1 PUSH2 0x31BF JUMP JUMPDEST DUP6 PUSH1 0x3 ADD PUSH1 0x0 DUP3 DUP3 SLOAD PUSH2 0x11AD SWAP2 SWAP1 PUSH2 0x3225 JUMP JUMPDEST SWAP1 SWAP2 SSTORE POP PUSH2 0x123B SWAP1 POP JUMP JUMPDEST DUP5 SLOAD PUSH1 0x64 SWAP1 PUSH2 0x1190 SWAP1 PUSH3 0x10000 SWAP1 DIV PUSH1 0xFF AND DUP7 PUSH2 0x31D3 JUMP JUMPDEST DUP5 SLOAD PUSH1 0x64 SWAP1 DUP4 SWAP1 PUSH2 0x11F3 SWAP1 PUSH1 0xFF PUSH4 0x1000000 DUP3 DIV DUP2 AND SWAP2 PUSH3 0x10000 SWAP1 DIV AND PUSH2 0x3238 JUMP JUMPDEST PUSH2 0x11FD SWAP2 SWAP1 PUSH2 0x3251 JUMP JUMPDEST PUSH2 0x120A SWAP1 PUSH1 0xFF AND DUP7 PUSH2 0x31D3 JUMP JUMPDEST PUSH2 0x1214 SWAP2 SWAP1 PUSH2 0x31BF JUMP JUMPDEST DUP6 PUSH1 0x3 ADD PUSH1 0x0 DUP3 DUP3 SLOAD PUSH2 0x1227 SWAP2 SWAP1 PUSH2 0x3225 JUMP JUMPDEST SWAP1 SWAP2 SSTORE POP POP DUP5 SLOAD PUSH4 0x1000000 SWAP1 DIV PUSH1 0xFF AND SWAP2 POP JUMPDEST PUSH1 0x5 DUP6 ADD SLOAD PUSH1 0x1 PUSH1 0x1 PUSH1 0xA0 SHL SUB AND ISZERO PUSH2 0x165A JUMPI PUSH1 0x5 SWAP1 SWAP5 ADD SLOAD PUSH1 0x1 PUSH1 0x1 PUSH1 0xA0 SHL SUB AND PUSH1 0x0 DUP2 DUP2 MSTORE PUSH1 0x9 PUSH1 0x20 MSTORE PUSH1 0x40 SWAP1 KECCAK256 DUP1 SLOAD SWAP1 SWAP6 SWAP2 SWAP4 POP PUSH1 0xFF PUSH4 0x1000000 SWAP1 SWAP2 DIV AND ISZERO DUP1 PUSH2 0x1297 JUMPI POP DUP5 SLOAD PUSH1 0xFF DUP1 DUP5 AND PUSH4 0x1000000 SWAP1 SWAP3 DIV AND GT ISZERO JUMPDEST ISZERO PUSH2 0x1337 JUMPI DUP5 SLOAD PUSH4 0x1000000 SWAP1 DIV PUSH1 0xFF AND PUSH1 0xA EQ DUP1 ISZERO PUSH2 0x12BA JUMPI POP DUP2 PUSH1 0xFF AND PUSH1 0xA EQ JUMPDEST DUP1 ISZERO PUSH2 0x12C4 JUMPI POP DUP1 ISZERO JUMPDEST ISZERO PUSH2 0x131F JUMPI POP POP DUP3 SLOAD PUSH1 0xA SWAP1 PUSH1 0x1 SWAP1 PUSH1 0x64 SWAP1 PUSH2 0x12EA SWAP1 PUSH3 0x10000 SWAP1 DIV PUSH1 0xFF AND PUSH1 0x5 PUSH2 0x3238 JUMP JUMPDEST PUSH2 0x12F7 SWAP1 PUSH1 0xFF AND DUP7 PUSH2 0x31D3 JUMP JUMPDEST PUSH2 0x1301 SWAP2 SWAP1 PUSH2 0x31BF JUMP JUMPDEST DUP6 PUSH1 0x3 ADD PUSH1 0x0 DUP3 DUP3 SLOAD PUSH2 0x1314 SWAP2 SWAP1 PUSH2 0x3225 JUMP JUMPDEST SWAP1 SWAP2 SSTORE POP PUSH2 0x13A2 SWAP1 POP JUMP JUMPDEST DUP5 SLOAD PUSH1 0x64 SWAP1 PUSH2 0x12F7 SWAP1 PUSH3 0x10000 SWAP1 DIV PUSH1 0xFF AND DUP7 PUSH2 0x31D3 JUMP JUMPDEST DUP5 SLOAD PUSH1 0x64 SWAP1 DUP4 SWAP1 PUSH2 0x135A SWAP1 PUSH1 0xFF PUSH4 0x1000000 DUP3 DIV DUP2 AND SWAP2 PUSH3 0x10000 SWAP1 DIV AND PUSH2 0x3238 JUMP JUMPDEST PUSH2 0x1364 SWAP2 SWAP1 PUSH2 0x3251 JUMP JUMPDEST PUSH2 0x1371 SWAP1 PUSH1 0xFF AND DUP7 PUSH2 0x31D3 JUMP JUMPDEST PUSH2 0x137B SWAP2 SWAP1 PUSH2 0x31BF JUMP JUMPDEST DUP6 PUSH1 0x3 ADD PUSH1 0x0 DUP3 DUP3 SLOAD PUSH2 0x138E SWAP2 SWAP1 PUSH2 0x3225 JUMP JUMPDEST SWAP1 SWAP2 SSTORE POP POP DUP5 SLOAD PUSH4 0x1000000 SWAP1 DIV PUSH1 0xFF AND SWAP2 POP JUMPDEST PUSH1 0x5 DUP6 ADD SLOAD PUSH1 0x1 PUSH1 0x1 PUSH1 0xA0 SHL SUB AND ISZERO PUSH2 0x165A JUMPI PUSH1 0x5 SWAP1 SWAP5 ADD SLOAD PUSH1 0x1 PUSH1 0x1 PUSH1 0xA0 SHL SUB AND PUSH1 0x0 DUP2 DUP2 MSTORE PUSH1 0x9 PUSH1 0x20 MSTORE PUSH1 0x40 SWAP1 KECCAK256 DUP1 SLOAD SWAP1 SWAP6 SWAP2 SWAP4 POP PUSH1 0xFF PUSH4 0x1000000 SWAP1 SWAP2 DIV AND ISZERO DUP1 PUSH2 0x13FE JUMPI POP DUP5 SLOAD PUSH1 0xFF DUP1 DUP5 AND PUSH4 0x1000000 SWAP1 SWAP3 DIV AND GT ISZERO JUMPDEST ISZERO PUSH2 0x149E JUMPI DUP5 SLOAD PUSH4 0x1000000 SWAP1 DIV PUSH1 0xFF AND PUSH1 0xA EQ DUP1 ISZERO PUSH2 0x1421 JUMPI POP DUP2 PUSH1 0xFF AND PUSH1 0xA EQ JUMPDEST DUP1 ISZERO PUSH2 0x142B JUMPI POP DUP1 ISZERO JUMPDEST ISZERO PUSH2 0x1486 JUMPI POP POP DUP3 SLOAD PUSH1 0xA SWAP1 PUSH1 0x1 SWAP1 PUSH1 0x64 SWAP1 PUSH2 0x1451 SWAP1 PUSH3 0x10000 SWAP1 DIV PUSH1 0xFF AND PUSH1 0x5 PUSH2 0x3238 JUMP JUMPDEST PUSH2 0x145E SWAP1 PUSH1 0xFF AND DUP7 PUSH2 0x31D3 JUMP JUMPDEST PUSH2 0x1468 SWAP2 SWAP1 PUSH2 0x31BF JUMP JUMPDEST DUP6 PUSH1 0x3 ADD PUSH1 0x0 DUP3 DUP3 SLOAD PUSH2 0x147B SWAP2 SWAP1 PUSH2 0x3225 JUMP JUMPDEST SWAP1 SWAP2 SSTORE POP PUSH2 0x1509 SWAP1 POP JUMP JUMPDEST DUP5 SLOAD PUSH1 0x64 SWAP1 PUSH2 0x145E SWAP1 PUSH3 0x10000 SWAP1 DIV PUSH1 0xFF AND DUP7 PUSH2 0x31D3 JUMP JUMPDEST DUP5 SLOAD PUSH1 0x64 SWAP1 DUP4 SWAP1 PUSH2 0x14C1 SWAP1 PUSH1 0xFF PUSH4 0x1000000 DUP3 DIV DUP2 AND SWAP2 PUSH3 0x10000 SWAP1 DIV AND PUSH2 0x3238 JUMP JUMPDEST PUSH2 0x14CB SWAP2 SWAP1 PUSH2 0x3251 JUMP JUMPDEST PUSH2 0x14D8 SWAP1 PUSH1 0xFF AND DUP7 PUSH2 0x31D3 JUMP JUMPDEST PUSH2 0x14E2 SWAP2 SWAP1 PUSH2 0x31BF JUMP JUMPDEST DUP6 PUSH1 0x3 ADD PUSH1 0x0 DUP3 DUP3 SLOAD PUSH2 0x14F5 SWAP2 SWAP1 PUSH2 0x3225 JUMP JUMPDEST SWAP1 SWAP2 SSTORE POP POP DUP5 SLOAD PUSH4 0x1000000 SWAP1 DIV PUSH1 0xFF AND SWAP2 POP JUMPDEST PUSH1 0x5 DUP6 ADD SLOAD PUSH1 0x1 PUSH1 0x1 PUSH1 0xA0 SHL SUB AND ISZERO PUSH2 0x165A JUMPI PUSH1 0x5 SWAP1 SWAP5 ADD SLOAD PUSH1 0x1 PUSH1 0x1 PUSH1 0xA0 SHL SUB AND PUSH1 0x0 DUP2 DUP2 MSTORE PUSH1 0x9 PUSH1 0x20 MSTORE PUSH1 0x40 SWAP1 KECCAK256 DUP1 SLOAD SWAP1 SWAP6 SWAP2 SWAP4 POP PUSH1 0xFF PUSH4 0x1000000 SWAP1 SWAP2 DIV AND ISZERO DUP1 PUSH2 0x1565 JUMPI POP DUP5 SLOAD PUSH1 0xFF DUP1 DUP5 AND PUSH4 0x1000000 SWAP1 SWAP3 DIV AND GT ISZERO JUMPDEST ISZERO PUSH2 0x15FD JUMPI DUP5 SLOAD PUSH4 0x1000000 SWAP1 DIV PUSH1 0xFF AND PUSH1 0xA EQ DUP1 ISZERO PUSH2 0x1588 JUMPI POP DUP2 PUSH1 0xFF AND PUSH1 0xA EQ JUMPDEST DUP1 ISZERO PUSH2 0x1592 JUMPI POP DUP1 ISZERO JUMPDEST ISZERO PUSH2 0x15E5 JUMPI DUP5 SLOAD PUSH1 0x64 SWAP1 PUSH2 0x15B0 SWAP1 PUSH3 0x10000 SWAP1 DIV PUSH1 0xFF AND PUSH1 0x5 PUSH2 0x3238 JUMP JUMPDEST PUSH2 0x15BD SWAP1 PUSH1 0xFF AND DUP7 PUSH2 0x31D3 JUMP JUMPDEST PUSH2 0x15C7 SWAP2 SWAP1 PUSH2 0x31BF JUMP JUMPDEST DUP6 PUSH1 0x3 ADD PUSH1 0x0 DUP3 DUP3 SLOAD PUSH2 0x15DA SWAP2 SWAP1 PUSH2 0x3225 JUMP JUMPDEST SWAP1 SWAP2 SSTORE POP PUSH2 0x165A SWAP1 POP JUMP JUMPDEST DUP5 SLOAD PUSH1 0x64 SWAP1 PUSH2 0x15BD SWAP1 PUSH3 0x10000 SWAP1 DIV PUSH1 0xFF AND DUP7 PUSH2 0x31D3 JUMP JUMPDEST DUP5 SLOAD PUSH1 0x64 SWAP1 DUP4 SWAP1 PUSH2 0x1620 SWAP1 PUSH1 0xFF PUSH4 0x1000000 DUP3 DIV DUP2 AND SWAP2 PUSH3 0x10000 SWAP1 DIV AND PUSH2 0x3238 JUMP JUMPDEST PUSH2 0x162A SWAP2 SWAP1 PUSH2 0x3251 JUMP JUMPDEST PUSH2 0x1637 SWAP1 PUSH1 0xFF AND DUP7 PUSH2 0x31D3 JUMP JUMPDEST PUSH2 0x1641 SWAP2 SWAP1 PUSH2 0x31BF JUMP JUMPDEST DUP6 PUSH1 0x3 ADD PUSH1 0x0 DUP3 DUP3 SLOAD PUSH2 0x1654 SWAP2 SWAP1 PUSH2 0x3225 JUMP JUMPDEST SWAP1 SWAP2 SSTORE POP POP JUMPDEST POP POP JUMPDEST POP JUMPDEST PUSH1 0x1 SWAP4 POP POP POP POP JUMPDEST SWAP3 SWAP2 POP POP JUMP JUMPDEST PUSH1 0x0 PUSH2 0x1679 DUP4 DUP4 PUSH2 0x296C JUMP JUMPDEST SWAP4 SWAP3 POP POP POP JUMP JUMPDEST PUSH1 0x1 PUSH1 0x1 PUSH1 0xA0 SHL SUB DUP1 DUP3 AND PUSH1 0x0 SWAP1 DUP2 MSTORE PUSH1 0x9 PUSH1 0x20 SWAP1 DUP2 MSTORE PUSH1 0x40 DUP1 DUP4 KECCAK256 DUP2 MLOAD PUSH2 0x160 DUP2 ADD DUP4 MSTORE DUP2 SLOAD PUSH1 0xFF DUP1 DUP3 AND DUP4 MSTORE PUSH2 0x100 DUP1 DUP4 DIV DUP3 AND DUP5 DUP9 ADD MSTORE PUSH3 0x10000 DUP4 DIV DUP3 AND DUP5 DUP8 ADD MSTORE PUSH4 0x1000000 SWAP1 SWAP3 DIV AND PUSH1 0x60 DUP4 ADD MSTORE PUSH1 0x1 DUP4 ADD SLOAD PUSH1 0x80 DUP4 ADD MSTORE PUSH1 0x2 DUP4 ADD SLOAD PUSH1 0xA0 DUP4 ADD MSTORE PUSH1 0x3 DUP4 ADD SLOAD PUSH1 0xC0 DUP4 ADD MSTORE PUSH1 0x4 DUP4 ADD SLOAD PUSH1 0xE0 DUP4 ADD MSTORE PUSH1 0x5 DUP4 ADD SLOAD SWAP1 SWAP7 AND SWAP6 DUP2 ADD SWAP6 SWAP1 SWAP6 MSTORE PUSH1 0x6 DUP2 ADD DUP1 SLOAD DUP4 MLOAD DUP2 DUP7 MUL DUP2 ADD DUP7 ADD SWAP1 SWAP5 MSTORE DUP1 DUP5 MSTORE SWAP5 SWAP6 DUP7 SWAP6 SWAP1 SWAP5 SWAP3 SWAP4 PUSH2 0x120 DUP7 ADD SWAP4 SWAP1 SWAP3 SWAP2 SWAP1 DUP4 ADD DUP3 DUP3 DUP1 ISZERO PUSH2 0x176B JUMPI PUSH1 0x20 MUL DUP3 ADD SWAP2 SWAP1 PUSH1 0x0 MSTORE PUSH1 0x20 PUSH1 0x0 KECCAK256 SWAP1 JUMPDEST DUP2 SLOAD PUSH1 0x1 PUSH1 0x1 PUSH1 0xA0 SHL SUB AND DUP2 MSTORE PUSH1 0x1 SWAP1 SWAP2 ADD SWAP1 PUSH1 0x20 ADD DUP1 DUP4 GT PUSH2 0x174D JUMPI JUMPDEST POP POP POP POP POP DUP2 MSTORE PUSH1 0x20 ADD PUSH1 0x7 DUP3 ADD DUP1 SLOAD DUP1 PUSH1 0x20 MUL PUSH1 0x20 ADD PUSH1 0x40 MLOAD SWAP1 DUP2 ADD PUSH1 0x40 MSTORE DUP1 SWAP3 SWAP2 SWAP1 DUP2 DUP2 MSTORE PUSH1 0x20 ADD PUSH1 0x0 SWAP1 JUMPDEST DUP3 DUP3 LT ISZERO PUSH2 0x17F9 JUMPI PUSH1 0x0 DUP5 DUP2 MSTORE PUSH1 0x20 SWAP1 DUP2 SWAP1 KECCAK256 PUSH1 0x40 DUP1 MLOAD PUSH1 0x80 DUP2 ADD DUP3 MSTORE PUSH1 0x3 DUP7 MUL SWAP1 SWAP3 ADD DUP1 SLOAD PUSH1 0xFF DUP2 AND ISZERO ISZERO DUP5 MSTORE PUSH2 0x100 SWAP1 DIV PUSH4 0xFFFFFFFF AND DUP4 DUP6 ADD MSTORE PUSH1 0x1 DUP1 DUP3 ADD SLOAD SWAP3 DUP5 ADD SWAP3 SWAP1 SWAP3 MSTORE PUSH1 0x2 ADD SLOAD PUSH1 0x60 DUP4 ADD MSTORE SWAP1 DUP4 MSTORE SWAP1 SWAP3 ADD SWAP2 ADD PUSH2 0x1799 JUMP JUMPDEST POP POP POP SWAP2 MSTORE POP POP PUSH2 0x120 DUP2 ADD MLOAD DUP1 MLOAD SWAP2 SWAP3 POP SWAP1 PUSH1 0x3 GT ISZERO PUSH2 0x181E JUMPI POP PUSH1 0x0 SWAP4 SWAP3 POP POP POP JUMP JUMPDEST PUSH1 0x0 DUP1 DUP1 DUP1 DUP1 DUP1 JUMPDEST DUP7 MLOAD DUP2 LT ISZERO PUSH2 0x18E6 JUMPI PUSH1 0x9 PUSH1 0x0 DUP9 DUP4 DUP2 MLOAD DUP2 LT PUSH2 0x1845 JUMPI PUSH2 0x1845 PUSH2 0x314C JUMP JUMPDEST PUSH1 0x20 SWAP1 DUP2 MUL SWAP2 SWAP1 SWAP2 ADD DUP2 ADD MLOAD PUSH1 0x1 PUSH1 0x1 PUSH1 0xA0 SHL SUB AND DUP3 MSTORE DUP2 ADD SWAP2 SWAP1 SWAP2 MSTORE PUSH1 0x40 ADD PUSH1 0x0 KECCAK256 SLOAD PUSH4 0x1000000 SWAP1 DIV PUSH1 0xFF AND SWAP2 POP PUSH1 0x7 DUP3 LT PUSH2 0x188B JUMPI PUSH2 0x1888 PUSH1 0x1 DUP5 PUSH2 0x3225 JUMP JUMPDEST SWAP3 POP JUMPDEST PUSH1 0x5 DUP3 PUSH1 0xFF AND LT PUSH2 0x18A4 JUMPI PUSH2 0x18A1 PUSH1 0x1 DUP6 PUSH2 0x3225 JUMP JUMPDEST SWAP4 POP JUMPDEST PUSH1 0x3 DUP3 PUSH1 0xFF AND LT PUSH2 0x18BD JUMPI PUSH2 0x18BA PUSH1 0x1 DUP7 PUSH2 0x3225 JUMP JUMPDEST SWAP5 POP JUMPDEST PUSH1 0x1 DUP3 PUSH1 0xFF AND LT PUSH2 0x18D6 JUMPI PUSH2 0x18D3 PUSH1 0x1 DUP8 PUSH2 0x3225 JUMP JUMPDEST SWAP6 POP JUMPDEST PUSH2 0x18DF DUP2 PUSH2 0x326A JUMP JUMPDEST SWAP1 POP PUSH2 0x1826 JUMP JUMPDEST POP PUSH1 0x0 PUSH2 0x18F4 DUP11 PUSH1 0x0 PUSH2 0x29CE JUMP JUMPDEST SWAP1 POP PUSH10 0x10F0CF064DD59200000 DUP2 LT ISZERO PUSH2 0x1918 JUMPI POP PUSH1 0x0 SWAP10 SWAP9 POP POP POP POP POP POP POP POP POP JUMP JUMPDEST PUSH1 0x2 DUP4 GT DUP1 ISZERO PUSH2 0x1933 JUMPI POP PUSH11 0x13DA329B6336471800000 DUP2 LT ISZERO JUMPDEST ISZERO PUSH2 0x1948 JUMPI POP PUSH1 0xA SWAP10 SWAP9 POP POP POP POP POP POP POP POP POP JUMP JUMPDEST PUSH1 0x2 DUP5 GT DUP1 ISZERO PUSH2 0x1962 JUMPI POP PUSH10 0x54B40B1F852BDA000000 DUP2 LT ISZERO JUMPDEST ISZERO PUSH2 0x1977 JUMPI POP PUSH1 0x7 SWAP10 SWAP9 POP POP POP POP POP POP POP POP POP JUMP JUMPDEST PUSH1 0x2 DUP6 GT DUP1 ISZERO PUSH2 0x1991 JUMPI POP PUSH10 0x152D02C7E14AF6800000 DUP2 LT ISZERO JUMPDEST ISZERO PUSH2 0x19A6 JUMPI POP PUSH1 0x5 SWAP10 SWAP9 POP POP POP POP POP POP POP POP POP JUMP JUMPDEST PUSH1 0x2 DUP7 GT DUP1 ISZERO PUSH2 0x19C0 JUMPI POP PUSH10 0x43C33C1937564800000 DUP2 LT ISZERO JUMPDEST ISZERO PUSH2 0x19D5 JUMPI POP PUSH1 0x3 SWAP10 SWAP9 POP POP POP POP POP POP POP POP POP JUMP JUMPDEST POP PUSH1 0x1 SWAP10 SWAP9 POP POP POP POP POP POP POP POP POP JUMP JUMPDEST PUSH1 0x5 SLOAD PUSH1 0x40 MLOAD PUSH4 0xA9059CBB PUSH1 0xE0 SHL DUP2 MSTORE PUSH1 0x1 PUSH1 0x1 PUSH1 0xA0 SHL SUB SWAP2 DUP3 AND PUSH1 0x4 DUP3 ADD MSTORE PUSH1 0x24 DUP2 ADD DUP4 SWAP1 MSTORE SWAP1 DUP4 AND SWAP1 PUSH4 0xA9059CBB SWAP1 PUSH1 0x44 ADD PUSH1 0x20 PUSH1 0x40 MLOAD DUP1 DUP4 SUB DUP2 PUSH1 0x0 DUP8 GAS CALL ISZERO DUP1 ISZERO PUSH2 0x1A38 JUMPI RETURNDATASIZE PUSH1 0x0 DUP1 RETURNDATACOPY RETURNDATASIZE PUSH1 0x0 REVERT JUMPDEST POP POP POP POP PUSH1 0x40 MLOAD RETURNDATASIZE PUSH1 0x1F NOT PUSH1 0x1F DUP3 ADD AND DUP3 ADD DUP1 PUSH1 0x40 MSTORE POP DUP2 ADD SWAP1 PUSH2 0x1A5C SWAP2 SWAP1 PUSH2 0x3203 JUMP JUMPDEST POP POP POP JUMP JUMPDEST PUSH1 0x0 PUSH2 0x1667 DUP3 PUSH1 0x0 PUSH2 0x29CE JUMP JUMPDEST CALLER PUSH1 0x0 DUP2 DUP2 MSTORE PUSH1 0x9 PUSH1 0x20 MSTORE PUSH1 0x40 SWAP1 KECCAK256 PUSH1 0x7 DUP2 ADD SLOAD PUSH2 0x1ADE JUMPI PUSH1 0x40 MLOAD PUSH3 0x461BCD PUSH1 0xE5 SHL DUP2 MSTORE PUSH1 0x20 PUSH1 0x4 DUP3 ADD MSTORE PUSH1 0x27 PUSH1 0x24 DUP3 ADD MSTORE PUSH32 0x554E4D5320636C61696D4D696E74546F6B656E28293A206F72646572206C6973 PUSH1 0x44 DUP3 ADD MSTORE PUSH7 0x7420656D707479 PUSH1 0xC8 SHL PUSH1 0x64 DUP3 ADD MSTORE PUSH1 0x84 ADD PUSH2 0x889 JUMP JUMPDEST PUSH1 0x7 DUP2 ADD DUP1 SLOAD PUSH1 0x0 SWAP2 SWAP1 PUSH2 0x1AF4 SWAP1 PUSH1 0x1 SWAP1 PUSH2 0x3139 JUMP JUMPDEST DUP2 SLOAD DUP2 LT PUSH2 0x1B04 JUMPI PUSH2 0x1B04 PUSH2 0x314C JUMP JUMPDEST PUSH1 0x0 SWAP2 DUP3 MSTORE PUSH1 0x20 SWAP1 SWAP2 KECCAK256 PUSH1 0x3 SWAP1 SWAP2 MUL ADD DUP1 SLOAD SWAP1 SWAP2 POP PUSH1 0xFF AND ISZERO PUSH2 0x1B7C JUMPI PUSH1 0x40 MLOAD PUSH3 0x461BCD PUSH1 0xE5 SHL DUP2 MSTORE PUSH1 0x20 PUSH1 0x4 DUP3 ADD MSTORE PUSH1 0x2A PUSH1 0x24 DUP3 ADD MSTORE PUSH32 0x554E4D5320636C61696D4D696E74546F6B656E28293A206C617374206F726465 PUSH1 0x44 DUP3 ADD MSTORE PUSH10 0x391034B99031B632B0B9 PUSH1 0xB1 SHL PUSH1 0x64 DUP3 ADD MSTORE PUSH1 0x84 ADD PUSH2 0x889 JUMP JUMPDEST PUSH1 0x0 DUP1 PUSH2 0x1B88 DUP6 PUSH2 0x58B JUMP JUMPDEST SWAP3 POP SWAP3 POP POP DUP1 ISZERO PUSH2 0x1C43 JUMPI DUP3 SLOAD PUSH1 0xFF NOT AND PUSH1 0x1 OR DUP4 SSTORE DUP2 ISZERO PUSH2 0x1C3E JUMPI PUSH1 0x7 SLOAD PUSH1 0x40 MLOAD PUSH4 0xA9059CBB PUSH1 0xE0 SHL DUP2 MSTORE PUSH1 0x1 PUSH1 0x1 PUSH1 0xA0 SHL SUB DUP8 DUP2 AND PUSH1 0x4 DUP4 ADD MSTORE PUSH1 0x24 DUP3 ADD DUP6 SWAP1 MSTORE SWAP1 SWAP2 AND SWAP1 PUSH4 0xA9059CBB SWAP1 PUSH1 0x44 ADD PUSH1 0x20 PUSH1 0x40 MLOAD DUP1 DUP4 SUB DUP2 PUSH1 0x0 DUP8 GAS CALL ISZERO DUP1 ISZERO PUSH2 0x1BF7 JUMPI RETURNDATASIZE PUSH1 0x0 DUP1 RETURNDATACOPY RETURNDATASIZE PUSH1 0x0 REVERT JUMPDEST POP POP POP POP PUSH1 0x40 MLOAD RETURNDATASIZE PUSH1 0x1F NOT PUSH1 0x1F DUP3 ADD AND DUP3 ADD DUP1 PUSH1 0x40 MSTORE POP DUP2 ADD SWAP1 PUSH2 0x1C1B SWAP2 SWAP1 PUSH2 0x3203 JUMP JUMPDEST POP DUP2 DUP4 PUSH1 0x2 ADD PUSH1 0x0 DUP3 DUP3 SLOAD PUSH2 0x1C30 SWAP2 SWAP1 PUSH2 0x3225 JUMP JUMPDEST SWAP1 SWAP2 SSTORE POP PUSH2 0x1C3E SWAP1 POP PUSH2 0x283A JUMP JUMPDEST PUSH2 0x1D53 JUMP JUMPDEST PUSH1 0x0 DUP3 GT PUSH2 0x1CB9 JUMPI PUSH1 0x40 MLOAD PUSH3 0x461BCD PUSH1 0xE5 SHL DUP2 MSTORE PUSH1 0x20 PUSH1 0x4 DUP3 ADD MSTORE PUSH1 0x38 PUSH1 0x24 DUP3 ADD MSTORE PUSH32 0x554E4D5320636C61696D4D696E74546F6B656E28293A20616374697665206F72 PUSH1 0x44 DUP3 ADD MSTORE PUSH32 0x646572206176616C6961626C65416D6F756E7420697320300000000000000000 PUSH1 0x64 DUP3 ADD MSTORE PUSH1 0x84 ADD PUSH2 0x889 JUMP JUMPDEST PUSH1 0x7 SLOAD PUSH1 0x40 MLOAD PUSH4 0xA9059CBB PUSH1 0xE0 SHL DUP2 MSTORE PUSH1 0x1 PUSH1 0x1 PUSH1 0xA0 SHL SUB DUP8 DUP2 AND PUSH1 0x4 DUP4 ADD MSTORE PUSH1 0x24 DUP3 ADD DUP6 SWAP1 MSTORE SWAP1 SWAP2 AND SWAP1 PUSH4 0xA9059CBB SWAP1 PUSH1 0x44 ADD PUSH1 0x20 PUSH1 0x40 MLOAD DUP1 DUP4 SUB DUP2 PUSH1 0x0 DUP8 GAS CALL ISZERO DUP1 ISZERO PUSH2 0x1D0C JUMPI RETURNDATASIZE PUSH1 0x0 DUP1 RETURNDATACOPY RETURNDATASIZE PUSH1 0x0 REVERT JUMPDEST POP POP POP POP PUSH1 0x40 MLOAD RETURNDATASIZE PUSH1 0x1F NOT PUSH1 0x1F DUP3 ADD AND DUP3 ADD DUP1 PUSH1 0x40 MSTORE POP DUP2 ADD SWAP1 PUSH2 0x1D30 SWAP2 SWAP1 PUSH2 0x3203 JUMP JUMPDEST POP DUP2 DUP4 PUSH1 0x2 ADD PUSH1 0x0 DUP3 DUP3 SLOAD PUSH2 0x1D45 SWAP2 SWAP1 PUSH2 0x3225 JUMP JUMPDEST SWAP1 SWAP2 SSTORE POP PUSH2 0x1D53 SWAP1 POP PUSH2 0x283A JUMP JUMPDEST POP POP POP POP POP JUMP JUMPDEST PUSH2 0x1DCC PUSH1 0x40 MLOAD DUP1 PUSH2 0x160 ADD PUSH1 0x40 MSTORE DUP1 PUSH1 0x0 PUSH1 0xFF AND DUP2 MSTORE PUSH1 0x20 ADD PUSH1 0x0 PUSH1 0xFF AND DUP2 MSTORE PUSH1 0x20 ADD PUSH1 0x0 PUSH1 0xFF AND DUP2 MSTORE PUSH1 0x20 ADD PUSH1 0x0 PUSH1 0xFF AND DUP2 MSTORE PUSH1 0x20 ADD PUSH1 0x0 DUP2 MSTORE PUSH1 0x20 ADD PUSH1 0x0 DUP2 MSTORE PUSH1 0x20 ADD PUSH1 0x0 DUP2 MSTORE PUSH1 0x20 ADD PUSH1 0x0 DUP2 MSTORE PUSH1 0x20 ADD PUSH1 0x0 PUSH1 0x1 PUSH1 0x1 PUSH1 0xA0 SHL SUB AND DUP2 MSTORE PUSH1 0x20 ADD PUSH1 0x60 DUP2 MSTORE PUSH1 0x20 ADD PUSH1 0x60 DUP2 MSTORE POP SWAP1 JUMP JUMPDEST PUSH1 0x1 PUSH1 0x1 PUSH1 0xA0 SHL SUB DUP1 DUP4 AND PUSH1 0x0 SWAP1 DUP2 MSTORE PUSH1 0x9 PUSH1 0x20 SWAP1 DUP2 MSTORE PUSH1 0x40 SWAP2 DUP3 SWAP1 KECCAK256 DUP3 MLOAD PUSH2 0x160 DUP2 ADD DUP5 MSTORE DUP2 SLOAD PUSH1 0xFF DUP1 DUP3 AND DUP4 MSTORE PUSH2 0x100 DUP1 DUP4 DIV DUP3 AND DUP5 DUP8 ADD MSTORE PUSH3 0x10000 DUP4 DIV DUP3 AND DUP5 DUP9 ADD MSTORE PUSH4 0x1000000 SWAP1 SWAP3 DIV AND PUSH1 0x60 DUP4 ADD MSTORE PUSH1 0x1 DUP4 ADD SLOAD PUSH1 0x80 DUP4 ADD MSTORE PUSH1 0x2 DUP4 ADD SLOAD PUSH1 0xA0 DUP4 ADD MSTORE PUSH1 0x3 DUP4 ADD SLOAD PUSH1 0xC0 DUP4 ADD MSTORE PUSH1 0x4 DUP4 ADD SLOAD PUSH1 0xE0 DUP4 ADD MSTORE PUSH1 0x5 DUP4 ADD SLOAD SWAP1 SWAP6 AND SWAP5 DUP2 ADD SWAP5 SWAP1 SWAP5 MSTORE PUSH1 0x6 DUP2 ADD DUP1 SLOAD DUP5 MLOAD DUP2 DUP6 MUL DUP2 ADD DUP6 ADD SWAP1 SWAP6 MSTORE DUP1 DUP6 MSTORE SWAP2 SWAP4 PUSH2 0x120 DUP7 ADD SWAP4 SWAP1 SWAP3 SWAP1 DUP4 ADD DUP3 DUP3 DUP1 ISZERO PUSH2 0x1EB1 JUMPI PUSH1 0x20 MUL DUP3 ADD SWAP2 SWAP1 PUSH1 0x0 MSTORE PUSH1 0x20 PUSH1 0x0 KECCAK256 SWAP1 JUMPDEST DUP2 SLOAD PUSH1 0x1 PUSH1 0x1 PUSH1 0xA0 SHL SUB AND DUP2 MSTORE PUSH1 0x1 SWAP1 SWAP2 ADD SWAP1 PUSH1 0x20 ADD DUP1 DUP4 GT PUSH2 0x1E93 JUMPI JUMPDEST POP POP POP POP POP DUP2 MSTORE PUSH1 0x20 ADD PUSH1 0x7 DUP3 ADD DUP1 SLOAD DUP1 PUSH1 0x20 MUL PUSH1 0x20 ADD PUSH1 0x40 MLOAD SWAP1 DUP2 ADD PUSH1 0x40 MSTORE DUP1 SWAP3 SWAP2 SWAP1 DUP2 DUP2 MSTORE PUSH1 0x20 ADD PUSH1 0x0 SWAP1 JUMPDEST DUP3 DUP3 LT ISZERO PUSH2 0x1F3F JUMPI PUSH1 0x0 DUP5 DUP2 MSTORE PUSH1 0x20 SWAP1 DUP2 SWAP1 KECCAK256 PUSH1 0x40 DUP1 MLOAD PUSH1 0x80 DUP2 ADD DUP3 MSTORE PUSH1 0x3 DUP7 MUL SWAP1 SWAP3 ADD DUP1 SLOAD PUSH1 0xFF DUP2 AND ISZERO ISZERO DUP5 MSTORE PUSH2 0x100 SWAP1 DIV PUSH4 0xFFFFFFFF AND DUP4 DUP6 ADD MSTORE PUSH1 0x1 DUP1 DUP3 ADD SLOAD SWAP3 DUP5 ADD SWAP3 SWAP1 SWAP3 MSTORE PUSH1 0x2 ADD SLOAD PUSH1 0x60 DUP4 ADD MSTORE SWAP1 DUP4 MSTORE SWAP1 SWAP3 ADD SWAP2 ADD PUSH2 0x1EDF JUMP JUMPDEST POP POP POP SWAP2 MSTORE POP SWAP1 SWAP4 SWAP3 POP POP POP JUMP JUMPDEST PUSH1 0x0 SLOAD PUSH1 0x1 PUSH1 0x1 PUSH1 0xA0 SHL SUB AND CALLER EQ PUSH2 0x1F77 JUMPI PUSH1 0x40 MLOAD PUSH3 0x461BCD PUSH1 0xE5 SHL DUP2 MSTORE PUSH1 0x4 ADD PUSH2 0x889 SWAP1 PUSH2 0x3283 JUMP JUMPDEST PUSH1 0x0 DUP1 SLOAD PUSH1 0x40 MLOAD PUSH1 0x1 PUSH1 0x1 PUSH1 0xA0 SHL SUB SWAP1 SWAP2 AND SWAP1 PUSH32 0x8BE0079C531659141344CD1FD0A4F28419497F9722A3DAAFE3B4186F6B6457E0 SWAP1 DUP4 SWAP1 LOG3 PUSH1 0x0 DUP1 SLOAD PUSH1 0x1 PUSH1 0x1 PUSH1 0xA0 SHL SUB NOT AND SWAP1 SSTORE JUMP JUMPDEST CALLER PUSH1 0x0 SWAP1 DUP2 MSTORE PUSH1 0x9 PUSH1 0x20 MSTORE PUSH1 0x40 DUP2 KECCAK256 PUSH1 0x4 DUP2 ADD SLOAD PUSH1 0x3 DUP3 ADD SLOAD SWAP2 SWAP3 SWAP2 LT PUSH2 0x1FF9 JUMPI DUP2 PUSH1 0x4 ADD SLOAD DUP3 PUSH1 0x3 ADD SLOAD PUSH2 0x1FF6 SWAP2 SWAP1 PUSH2 0x3139 JUMP JUMPDEST SWAP1 POP JUMPDEST PUSH1 0x0 DUP2 GT PUSH2 0x206F JUMPI PUSH1 0x40 MLOAD PUSH3 0x461BCD PUSH1 0xE5 SHL DUP2 MSTORE PUSH1 0x20 PUSH1 0x4 DUP3 ADD MSTORE PUSH1 0x38 PUSH1 0x24 DUP3 ADD MSTORE PUSH32 0x554E4D5320636C61696D496E76697465426F6E757328293A206176616C696162 PUSH1 0x44 DUP3 ADD MSTORE PUSH32 0x6C6520636C61696D20616D6F756E742069732030206E6F770000000000000000 PUSH1 0x64 DUP3 ADD MSTORE PUSH1 0x84 ADD PUSH2 0x889 JUMP JUMPDEST PUSH1 0x7 SLOAD PUSH1 0x40 MLOAD PUSH4 0xA9059CBB PUSH1 0xE0 SHL DUP2 MSTORE CALLER PUSH1 0x4 DUP3 ADD MSTORE PUSH1 0x24 DUP2 ADD DUP4 SWAP1 MSTORE PUSH1 0x1 PUSH1 0x1 PUSH1 0xA0 SHL SUB SWAP1 SWAP2 AND SWAP1 PUSH4 0xA9059CBB SWAP1 PUSH1 0x44 ADD PUSH1 0x20 PUSH1 0x40 MLOAD DUP1 DUP4 SUB DUP2 PUSH1 0x0 DUP8 GAS CALL ISZERO DUP1 ISZERO PUSH2 0x20C0 JUMPI RETURNDATASIZE PUSH1 0x0 DUP1 RETURNDATACOPY RETURNDATASIZE PUSH1 0x0 REVERT JUMPDEST POP POP POP POP PUSH1 0x40 MLOAD RETURNDATASIZE PUSH1 0x1F NOT PUSH1 0x1F DUP3 ADD AND DUP3 ADD DUP1 PUSH1 0x40 MSTORE POP DUP2 ADD SWAP1 PUSH2 0x20E4 SWAP2 SWAP1 PUSH2 0x3203 JUMP JUMPDEST POP DUP1 DUP3 PUSH1 0x4 ADD PUSH1 0x0 DUP3 DUP3 SLOAD PUSH2 0x20F9 SWAP2 SWAP1 PUSH2 0x3225 JUMP JUMPDEST SWAP1 SWAP2 SSTORE POP PUSH2 0x2107 SWAP1 POP PUSH2 0x283A JUMP JUMPDEST POP POP JUMP JUMPDEST PUSH1 0x7 SLOAD PUSH1 0x8 SLOAD PUSH1 0x40 MLOAD PUSH4 0x70A08231 PUSH1 0xE0 SHL DUP2 MSTORE PUSH1 0x1 PUSH1 0x1 PUSH1 0xA0 SHL SUB SWAP2 DUP3 AND PUSH1 0x4 DUP3 ADD MSTORE PUSH1 0x0 SWAP3 SWAP2 SWAP1 SWAP2 AND SWAP1 PUSH4 0x70A08231 SWAP1 PUSH1 0x24 ADD PUSH1 0x20 PUSH1 0x40 MLOAD DUP1 DUP4 SUB DUP2 DUP7 GAS STATICCALL ISZERO DUP1 ISZERO PUSH2 0x215C JUMPI RETURNDATASIZE PUSH1 0x0 DUP1 RETURNDATACOPY RETURNDATASIZE PUSH1 0x0 REVERT JUMPDEST POP POP POP POP PUSH1 0x40 MLOAD RETURNDATASIZE PUSH1 0x1F NOT PUSH1 0x1F DUP3 ADD AND DUP3 ADD DUP1 PUSH1 0x40 MSTORE POP DUP2 ADD SWAP1 PUSH2 0x2180 SWAP2 SWAP1 PUSH2 0x31EA JUMP JUMPDEST SWAP1 POP DUP1 ISZERO PUSH2 0x221C JUMPI PUSH1 0x6 SLOAD PUSH1 0x8 SLOAD PUSH1 0x40 MLOAD PUSH4 0x70A08231 PUSH1 0xE0 SHL DUP2 MSTORE PUSH1 0x1 PUSH1 0x1 PUSH1 0xA0 SHL SUB SWAP2 DUP3 AND PUSH1 0x4 DUP3 ADD MSTORE DUP4 SWAP3 SWAP2 SWAP1 SWAP2 AND SWAP1 PUSH4 0x70A08231 SWAP1 PUSH1 0x24 ADD PUSH1 0x20 PUSH1 0x40 MLOAD DUP1 DUP4 SUB DUP2 DUP7 GAS STATICCALL ISZERO DUP1 ISZERO PUSH2 0x21D8 JUMPI RETURNDATASIZE PUSH1 0x0 DUP1 RETURNDATACOPY RETURNDATASIZE PUSH1 0x0 REVERT JUMPDEST POP POP POP POP PUSH1 0x40 MLOAD RETURNDATASIZE PUSH1 0x1F NOT PUSH1 0x1F DUP3 ADD AND DUP3 ADD DUP1 PUSH1 0x40 MSTORE POP DUP2 ADD SWAP1 PUSH2 0x21FC SWAP2 SWAP1 PUSH2 0x31EA JUMP JUMPDEST PUSH2 0x220E SWAP1 PUSH8 0xDE0B6B3A7640000 PUSH2 0x31D3 JUMP JUMPDEST PUSH2 0x2218 SWAP2 SWAP1 PUSH2 0x31BF JUMP JUMPDEST PUSH1 0x1 SSTORE JUMPDEST PUSH2 0x2229 PUSH3 0x15180 TIMESTAMP PUSH2 0x31BF JUMP JUMPDEST PUSH1 0x2 SSTORE POP JUMP JUMPDEST PUSH1 0x0 SLOAD PUSH1 0x1 PUSH1 0x1 PUSH1 0xA0 SHL SUB AND CALLER EQ PUSH2 0x2259 JUMPI PUSH1 0x40 MLOAD PUSH3 0x461BCD PUSH1 0xE5 SHL DUP2 MSTORE PUSH1 0x4 ADD PUSH2 0x889 SWAP1 PUSH2 0x3283 JUMP JUMPDEST PUSH1 0x7 DUP1 SLOAD PUSH1 0x1 PUSH1 0x1 PUSH1 0xA0 SHL SUB NOT AND PUSH1 0x1 PUSH1 0x1 PUSH1 0xA0 SHL SUB DUP4 AND SWAP1 DUP2 OR SWAP1 SWAP2 SSTORE PUSH1 0x40 DUP1 MLOAD PUSH4 0x545844C1 PUSH1 0xE1 SHL DUP2 MSTORE SWAP1 MLOAD PUSH4 0xA8B08982 SWAP2 PUSH1 0x4 DUP1 DUP3 ADD SWAP3 PUSH1 0x20 SWAP3 SWAP1 SWAP2 SWAP1 DUP3 SWAP1 SUB ADD DUP2 DUP7 GAS STATICCALL ISZERO DUP1 ISZERO PUSH2 0x22B2 JUMPI RETURNDATASIZE PUSH1 0x0 DUP1 RETURNDATACOPY RETURNDATASIZE PUSH1 0x0 REVERT JUMPDEST POP POP POP POP PUSH1 0x40 MLOAD RETURNDATASIZE PUSH1 0x1F NOT PUSH1 0x1F DUP3 ADD AND DUP3 ADD DUP1 PUSH1 0x40 MSTORE POP DUP2 ADD SWAP1 PUSH2 0x22D6 SWAP2 SWAP1 PUSH2 0x32A3 JUMP JUMPDEST PUSH1 0x8 DUP1 SLOAD PUSH1 0x1 PUSH1 0x1 PUSH1 0xA0 SHL SUB NOT AND PUSH1 0x1 PUSH1 0x1 PUSH1 0xA0 SHL SUB SWAP3 DUP4 AND OR SWAP1 SSTORE PUSH1 0x7 SLOAD PUSH1 0x40 DUP1 MLOAD PUSH4 0x9AB4A445 PUSH1 0xE0 SHL DUP2 MSTORE SWAP1 MLOAD SWAP2 SWAP1 SWAP3 AND SWAP2 PUSH4 0x9AB4A445 SWAP2 PUSH1 0x4 DUP1 DUP4 ADD SWAP3 PUSH1 0x20 SWAP3 SWAP2 SWAP1 DUP3 SWAP1 SUB ADD DUP2 DUP7 GAS STATICCALL ISZERO DUP1 ISZERO PUSH2 0x2334 JUMPI RETURNDATASIZE PUSH1 0x0 DUP1 RETURNDATACOPY RETURNDATASIZE PUSH1 0x0 REVERT JUMPDEST POP POP POP POP PUSH1 0x40 MLOAD RETURNDATASIZE PUSH1 0x1F NOT PUSH1 0x1F DUP3 ADD AND DUP3 ADD DUP1 PUSH1 0x40 MSTORE POP DUP2 ADD SWAP1 PUSH2 0x2358 SWAP2 SWAP1 PUSH2 0x32A3 JUMP JUMPDEST PUSH1 0x6 DUP1 SLOAD PUSH1 0x1 PUSH1 0x1 PUSH1 0xA0 SHL SUB NOT AND PUSH1 0x1 PUSH1 0x1 PUSH1 0xA0 SHL SUB SWAP3 DUP4 AND OR SWAP1 SSTORE PUSH1 0x7 SLOAD PUSH1 0x40 DUP1 MLOAD PUSH4 0x1934662B PUSH1 0xE1 SHL DUP2 MSTORE SWAP1 MLOAD SWAP2 SWAP1 SWAP3 AND SWAP2 PUSH4 0x3268CC56 SWAP2 PUSH1 0x4 DUP1 DUP4 ADD SWAP3 PUSH1 0x20 SWAP3 SWAP2 SWAP1 DUP3 SWAP1 SUB ADD DUP2 DUP7 GAS STATICCALL ISZERO DUP1 ISZERO PUSH2 0x23B6 JUMPI RETURNDATASIZE PUSH1 0x0 DUP1 RETURNDATACOPY RETURNDATASIZE PUSH1 0x0 REVERT JUMPDEST POP POP POP POP PUSH1 0x40 MLOAD RETURNDATASIZE PUSH1 0x1F NOT PUSH1 0x1F DUP3 ADD AND DUP3 ADD DUP1 PUSH1 0x40 MSTORE POP DUP2 ADD SWAP1 PUSH2 0x23DA SWAP2 SWAP1 PUSH2 0x32A3 JUMP JUMPDEST PUSH1 0x4 DUP1 SLOAD PUSH1 0x1 PUSH1 0x1 PUSH1 0xA0 SHL SUB NOT AND PUSH1 0x1 PUSH1 0x1 PUSH1 0xA0 SHL SUB SWAP3 DUP4 AND OR DUP2 SSTORE PUSH1 0x7 SLOAD PUSH1 0x40 DUP1 MLOAD PUSH4 0xE7334FE5 PUSH1 0xE0 SHL DUP2 MSTORE SWAP1 MLOAD SWAP2 SWAP1 SWAP4 AND SWAP3 PUSH4 0xE7334FE5 SWAP3 DUP2 DUP2 ADD SWAP3 PUSH1 0x20 SWAP3 SWAP1 SWAP2 SWAP1 DUP3 SWAP1 SUB ADD DUP2 DUP7 GAS STATICCALL ISZERO DUP1 ISZERO PUSH2 0x2437 JUMPI RETURNDATASIZE PUSH1 0x0 DUP1 RETURNDATACOPY RETURNDATASIZE PUSH1 0x0 REVERT JUMPDEST POP POP POP POP PUSH1 0x40 MLOAD RETURNDATASIZE PUSH1 0x1F NOT PUSH1 0x1F DUP3 ADD AND DUP3 ADD DUP1 PUSH1 0x40 MSTORE POP DUP2 ADD SWAP1 PUSH2 0x245B SWAP2 SWAP1 PUSH2 0x32A3 JUMP JUMPDEST PUSH1 0x5 DUP1 SLOAD PUSH1 0x1 PUSH1 0x1 PUSH1 0xA0 SHL SUB NOT AND PUSH1 0x1 PUSH1 0x1 PUSH1 0xA0 SHL SUB SWAP3 DUP4 AND OR SWAP1 SSTORE PUSH1 0x7 SLOAD PUSH1 0x4 DUP1 SLOAD PUSH1 0x40 MLOAD PUSH4 0x95EA7B3 PUSH1 0xE0 SHL DUP2 MSTORE SWAP1 DUP5 AND SWAP2 DUP2 ADD SWAP2 SWAP1 SWAP2 MSTORE PUSH1 0x0 NOT PUSH1 0x24 DUP3 ADD MSTORE SWAP2 AND SWAP1 PUSH4 0x95EA7B3 SWAP1 PUSH1 0x44 ADD PUSH1 0x20 PUSH1 0x40 MLOAD DUP1 DUP4 SUB DUP2 PUSH1 0x0 DUP8 GAS CALL ISZERO DUP1 ISZERO PUSH2 0x24C8 JUMPI RETURNDATASIZE PUSH1 0x0 DUP1 RETURNDATACOPY RETURNDATASIZE PUSH1 0x0 REVERT JUMPDEST POP POP POP POP PUSH1 0x40 MLOAD RETURNDATASIZE PUSH1 0x1F NOT PUSH1 0x1F DUP3 ADD AND DUP3 ADD DUP1 PUSH1 0x40 MSTORE POP DUP2 ADD SWAP1 PUSH2 0x24EC SWAP2 SWAP1 PUSH2 0x3203 JUMP JUMPDEST POP PUSH1 0x6 SLOAD PUSH1 0x4 DUP1 SLOAD PUSH1 0x40 MLOAD PUSH4 0x95EA7B3 PUSH1 0xE0 SHL DUP2 MSTORE PUSH1 0x1 PUSH1 0x1 PUSH1 0xA0 SHL SUB SWAP2 DUP3 AND SWAP3 DUP2 ADD SWAP3 SWAP1 SWAP3 MSTORE PUSH1 0x0 NOT PUSH1 0x24 DUP4 ADD MSTORE SWAP1 SWAP2 AND SWAP1 PUSH4 0x95EA7B3 SWAP1 PUSH1 0x44 ADD PUSH1 0x20 PUSH1 0x40 MLOAD DUP1 DUP4 SUB DUP2 PUSH1 0x0 DUP8 GAS CALL ISZERO DUP1 ISZERO PUSH2 0x2547 JUMPI RETURNDATASIZE PUSH1 0x0 DUP1 RETURNDATACOPY RETURNDATASIZE PUSH1 0x0 REVERT JUMPDEST POP POP POP POP PUSH1 0x40 MLOAD RETURNDATASIZE PUSH1 0x1F NOT PUSH1 0x1F DUP3 ADD AND DUP3 ADD DUP1 PUSH1 0x40 MSTORE POP DUP2 ADD SWAP1 PUSH2 0x2107 SWAP2 SWAP1 PUSH2 0x3203 JUMP JUMPDEST PUSH1 0x60 PUSH1 0xA DUP1 SLOAD DUP1 PUSH1 0x20 MUL PUSH1 0x20 ADD PUSH1 0x40 MLOAD SWAP1 DUP2 ADD PUSH1 0x40 MSTORE DUP1 SWAP3 SWAP2 SWAP1 DUP2 DUP2 MSTORE PUSH1 0x20 ADD DUP3 DUP1 SLOAD DUP1 ISZERO PUSH2 0x25C3 JUMPI PUSH1 0x20 MUL DUP3 ADD SWAP2 SWAP1 PUSH1 0x0 MSTORE PUSH1 0x20 PUSH1 0x0 KECCAK256 SWAP1 JUMPDEST DUP2 SLOAD PUSH1 0x1 PUSH1 0x1 PUSH1 0xA0 SHL SUB AND DUP2 MSTORE PUSH1 0x1 SWAP1 SWAP2 ADD SWAP1 PUSH1 0x20 ADD DUP1 DUP4 GT PUSH2 0x25A5 JUMPI JUMPDEST POP POP POP POP POP SWAP1 POP SWAP1 JUMP JUMPDEST PUSH1 0x1 PUSH1 0x1 PUSH1 0xA0 SHL SUB DUP6 AND PUSH1 0x0 SWAP1 DUP2 MSTORE PUSH1 0x9 PUSH1 0x20 MSTORE PUSH1 0x40 DUP2 KECCAK256 PUSH1 0x7 ADD DUP1 SLOAD PUSH1 0xFF DUP8 AND SWAP1 DUP2 LT PUSH2 0x25FD JUMPI PUSH2 0x25FD PUSH2 0x314C JUMP JUMPDEST PUSH1 0x0 SWAP2 DUP3 MSTORE PUSH1 0x20 SWAP1 SWAP2 KECCAK256 PUSH1 0x3 SWAP1 SWAP2 MUL ADD DUP1 SLOAD PUSH4 0xFFFFFFFF SWAP1 SWAP6 AND PUSH2 0x100 MUL PUSH5 0xFFFFFFFF00 NOT SWAP1 SWAP6 AND SWAP5 SWAP1 SWAP5 OR DUP5 SSTORE POP PUSH1 0x1 DUP4 ADD SWAP2 SWAP1 SWAP2 SSTORE PUSH1 0x2 SWAP1 SWAP2 ADD SSTORE POP POP JUMP JUMPDEST PUSH1 0x0 PUSH2 0x1667 DUP3 PUSH1 0x1 PUSH2 0x2C16 JUMP JUMPDEST PUSH1 0x0 SLOAD PUSH1 0x1 PUSH1 0x1 PUSH1 0xA0 SHL SUB AND CALLER EQ PUSH2 0x2675 JUMPI PUSH1 0x40 MLOAD PUSH3 0x461BCD PUSH1 0xE5 SHL DUP2 MSTORE PUSH1 0x4 ADD PUSH2 0x889 SWAP1 PUSH2 0x3283 JUMP JUMPDEST PUSH1 0x1 PUSH1 0x1 PUSH1 0xA0 SHL SUB DUP2 AND PUSH2 0x26B6 JUMPI PUSH1 0x40 MLOAD PUSH3 0x461BCD PUSH1 0xE5 SHL DUP2 MSTORE PUSH1 0x20 PUSH1 0x4 DUP3 ADD MSTORE PUSH1 0x8 PUSH1 0x24 DUP3 ADD MSTORE PUSH8 0x6E6577206973203 PUSH1 0xC4 SHL PUSH1 0x44 DUP3 ADD MSTORE PUSH1 0x64 ADD PUSH2 0x889 JUMP JUMPDEST PUSH1 0x0 DUP1 SLOAD PUSH1 0x40 MLOAD PUSH1 0x1 PUSH1 0x1 PUSH1 0xA0 SHL SUB DUP1 DUP6 AND SWAP4 SWAP3 AND SWAP2 PUSH32 0x8BE0079C531659141344CD1FD0A4F28419497F9722A3DAAFE3B4186F6B6457E0 SWAP2 LOG3 PUSH1 0x0 DUP1 SLOAD PUSH1 0x1 PUSH1 0x1 PUSH1 0xA0 SHL SUB NOT AND PUSH1 0x1 PUSH1 0x1 PUSH1 0xA0 SHL SUB SWAP3 SWAP1 SWAP3 AND SWAP2 SWAP1 SWAP2 OR SWAP1 SSTORE JUMP JUMPDEST PUSH1 0x5 SLOAD PUSH1 0x40 MLOAD PUSH1 0x1 PUSH1 0x1 PUSH1 0xA0 SHL SUB SWAP1 SWAP2 AND SWAP1 SELFBALANCE DUP1 ISZERO PUSH2 0x8FC MUL SWAP2 PUSH1 0x0 DUP2 DUP2 DUP2 DUP6 DUP9 DUP9 CALL SWAP4 POP POP POP POP ISZERO DUP1 ISZERO PUSH2 0x274A JUMPI RETURNDATASIZE PUSH1 0x0 DUP1 RETURNDATACOPY RETURNDATASIZE PUSH1 0x0 REVERT JUMPDEST POP JUMP JUMPDEST PUSH1 0x0 SLOAD PUSH1 0x1 PUSH1 0x1 PUSH1 0xA0 SHL SUB AND CALLER EQ PUSH2 0x2777 JUMPI PUSH1 0x40 MLOAD PUSH3 0x461BCD PUSH1 0xE5 SHL DUP2 MSTORE PUSH1 0x4 ADD PUSH2 0x889 SWAP1 PUSH2 0x3283 JUMP JUMPDEST PUSH1 0x5 DUP1 SLOAD PUSH1 0x1 PUSH1 0x1 PUSH1 0xA0 SHL SUB NOT AND PUSH1 0x1 PUSH1 0x1 PUSH1 0xA0 SHL SUB SWAP3 SWAP1 SWAP3 AND SWAP2 SWAP1 SWAP2 OR SWAP1 SSTORE JUMP JUMPDEST PUSH1 0x1 PUSH1 0x1 PUSH1 0xA0 SHL SUB DUP4 AND PUSH1 0x0 SWAP1 DUP2 MSTORE PUSH1 0x9 PUSH1 0x20 MSTORE PUSH1 0x40 DUP2 KECCAK256 SWAP1 PUSH2 0x27C0 SWAP1 PUSH1 0x6 DUP4 ADD SWAP1 PUSH2 0x2CFA JUMP JUMPDEST PUSH1 0x0 JUMPDEST DUP3 DUP2 LT ISZERO PUSH2 0x1D53 JUMPI DUP2 PUSH1 0x6 ADD DUP5 DUP5 DUP4 DUP2 DUP2 LT PUSH2 0x27E1 JUMPI PUSH2 0x27E1 PUSH2 0x314C JUMP JUMPDEST SWAP1 POP PUSH1 0x20 MUL ADD PUSH1 0x20 DUP2 ADD SWAP1 PUSH2 0x27F6 SWAP2 SWAP1 PUSH2 0x2D41 JUMP JUMPDEST DUP2 SLOAD PUSH1 0x1 DUP2 ADD DUP4 SSTORE PUSH1 0x0 SWAP3 DUP4 MSTORE PUSH1 0x20 SWAP1 SWAP3 KECCAK256 SWAP1 SWAP2 ADD DUP1 SLOAD PUSH1 0x1 PUSH1 0x1 PUSH1 0xA0 SHL SUB NOT AND PUSH1 0x1 PUSH1 0x1 PUSH1 0xA0 SHL SUB SWAP1 SWAP3 AND SWAP2 SWAP1 SWAP2 OR SWAP1 SSTORE DUP1 PUSH2 0x2832 DUP2 PUSH2 0x326A JUMP JUMPDEST SWAP2 POP POP PUSH2 0x27C3 JUMP JUMPDEST PUSH1 0x0 PUSH2 0x2849 PUSH3 0x15180 TIMESTAMP PUSH2 0x31BF JUMP JUMPDEST SWAP1 POP PUSH1 0x2 SLOAD DUP2 GT ISZERO PUSH2 0x274A JUMPI PUSH1 0x7 SLOAD PUSH1 0x8 SLOAD PUSH1 0x40 MLOAD PUSH4 0x70A08231 PUSH1 0xE0 SHL DUP2 MSTORE PUSH1 0x1 PUSH1 0x1 PUSH1 0xA0 SHL SUB SWAP2 DUP3 AND PUSH1 0x4 DUP3 ADD MSTORE PUSH1 0x0 SWAP3 SWAP2 SWAP1 SWAP2 AND SWAP1 PUSH4 0x70A08231 SWAP1 PUSH1 0x24 ADD PUSH1 0x20 PUSH1 0x40 MLOAD DUP1 DUP4 SUB DUP2 DUP7 GAS STATICCALL ISZERO DUP1 ISZERO PUSH2 0x28A6 JUMPI RETURNDATASIZE PUSH1 0x0 DUP1 RETURNDATACOPY RETURNDATASIZE PUSH1 0x0 REVERT JUMPDEST POP POP POP POP PUSH1 0x40 MLOAD RETURNDATASIZE PUSH1 0x1F NOT PUSH1 0x1F DUP3 ADD AND DUP3 ADD DUP1 PUSH1 0x40 MSTORE POP DUP2 ADD SWAP1 PUSH2 0x28CA SWAP2 SWAP1 PUSH2 0x31EA JUMP JUMPDEST SWAP1 POP DUP1 ISZERO PUSH2 0x2966 JUMPI PUSH1 0x6 SLOAD PUSH1 0x8 SLOAD PUSH1 0x40 MLOAD PUSH4 0x70A08231 PUSH1 0xE0 SHL DUP2 MSTORE PUSH1 0x1 PUSH1 0x1 PUSH1 0xA0 SHL SUB SWAP2 DUP3 AND PUSH1 0x4 DUP3 ADD MSTORE DUP4 SWAP3 SWAP2 SWAP1 SWAP2 AND SWAP1 PUSH4 0x70A08231 SWAP1 PUSH1 0x24 ADD PUSH1 0x20 PUSH1 0x40 MLOAD DUP1 DUP4 SUB DUP2 DUP7 GAS STATICCALL ISZERO DUP1 ISZERO PUSH2 0x2922 JUMPI RETURNDATASIZE PUSH1 0x0 DUP1 RETURNDATACOPY RETURNDATASIZE PUSH1 0x0 REVERT JUMPDEST POP POP POP POP PUSH1 0x40 MLOAD RETURNDATASIZE PUSH1 0x1F NOT PUSH1 0x1F DUP3 ADD AND DUP3 ADD DUP1 PUSH1 0x40 MSTORE POP DUP2 ADD SWAP1 PUSH2 0x2946 SWAP2 SWAP1 PUSH2 0x31EA JUMP JUMPDEST PUSH2 0x2958 SWAP1 PUSH8 0xDE0B6B3A7640000 PUSH2 0x31D3 JUMP JUMPDEST PUSH2 0x2962 SWAP2 SWAP1 PUSH2 0x31BF JUMP JUMPDEST PUSH1 0x1 SSTORE JUMPDEST POP PUSH1 0x2 SSTORE JUMP JUMPDEST PUSH1 0x0 JUMPDEST PUSH1 0x1 PUSH1 0x1 PUSH1 0xA0 SHL SUB DUP3 AND ISZERO PUSH2 0x29C5 JUMPI DUP3 PUSH1 0x1 PUSH1 0x1 PUSH1 0xA0 SHL SUB AND DUP3 PUSH1 0x1 PUSH1 0x1 PUSH1 0xA0 SHL SUB AND SUB PUSH2 0x299F JUMPI POP PUSH1 0x1 PUSH2 0x1667 JUMP JUMPDEST PUSH1 0x1 PUSH1 0x1 PUSH1 0xA0 SHL SUB SWAP2 DUP3 AND PUSH1 0x0 SWAP1 DUP2 MSTORE PUSH1 0x9 PUSH1 0x20 MSTORE PUSH1 0x40 SWAP1 KECCAK256 PUSH1 0x5 ADD SLOAD SWAP1 SWAP2 AND SWAP1 PUSH2 0x296F JUMP JUMPDEST POP PUSH1 0x0 SWAP3 SWAP2 POP POP JUMP JUMPDEST PUSH1 0x1 PUSH1 0x1 PUSH1 0xA0 SHL SUB DUP1 DUP4 AND PUSH1 0x0 SWAP1 DUP2 MSTORE PUSH1 0x9 PUSH1 0x20 SWAP1 DUP2 MSTORE PUSH1 0x40 DUP1 DUP4 KECCAK256 DUP2 MLOAD PUSH2 0x160 DUP2 ADD DUP4 MSTORE DUP2 SLOAD PUSH1 0xFF DUP1 DUP3 AND DUP4 MSTORE PUSH2 0x100 DUP1 DUP4 DIV DUP3 AND DUP5 DUP9 ADD MSTORE PUSH3 0x10000 DUP4 DIV DUP3 AND DUP5 DUP8 ADD MSTORE PUSH4 0x1000000 SWAP1 SWAP3 DIV AND PUSH1 0x60 DUP4 ADD MSTORE PUSH1 0x1 DUP4 ADD SLOAD PUSH1 0x80 DUP4 ADD MSTORE PUSH1 0x2 DUP4 ADD SLOAD PUSH1 0xA0 DUP4 ADD MSTORE PUSH1 0x3 DUP4 ADD SLOAD PUSH1 0xC0 DUP4 ADD MSTORE PUSH1 0x4 DUP4 ADD SLOAD PUSH1 0xE0 DUP4 ADD MSTORE PUSH1 0x5 DUP4 ADD SLOAD SWAP1 SWAP7 AND SWAP6 DUP2 ADD SWAP6 SWAP1 SWAP6 MSTORE PUSH1 0x6 DUP2 ADD DUP1 SLOAD DUP4 MLOAD DUP2 DUP7 MUL DUP2 ADD DUP7 ADD SWAP1 SWAP5 MSTORE DUP1 DUP5 MSTORE SWAP5 SWAP6 DUP7 SWAP6 SWAP1 SWAP5 SWAP3 SWAP4 PUSH2 0x120 DUP7 ADD SWAP4 SWAP1 SWAP3 SWAP2 SWAP1 DUP4 ADD DUP3 DUP3 DUP1 ISZERO PUSH2 0x2AB9 JUMPI PUSH1 0x20 MUL DUP3 ADD SWAP2 SWAP1 PUSH1 0x0 MSTORE PUSH1 0x20 PUSH1 0x0 KECCAK256 SWAP1 JUMPDEST DUP2 SLOAD PUSH1 0x1 PUSH1 0x1 PUSH1 0xA0 SHL SUB AND DUP2 MSTORE PUSH1 0x1 SWAP1 SWAP2 ADD SWAP1 PUSH1 0x20 ADD DUP1 DUP4 GT PUSH2 0x2A9B JUMPI JUMPDEST POP POP POP POP POP DUP2 MSTORE PUSH1 0x20 ADD PUSH1 0x7 DUP3 ADD DUP1 SLOAD DUP1 PUSH1 0x20 MUL PUSH1 0x20 ADD PUSH1 0x40 MLOAD SWAP1 DUP2 ADD PUSH1 0x40 MSTORE DUP1 SWAP3 SWAP2 SWAP1 DUP2 DUP2 MSTORE PUSH1 0x20 ADD PUSH1 0x0 SWAP1 JUMPDEST DUP3 DUP3 LT ISZERO PUSH2 0x2B47 JUMPI PUSH1 0x0 DUP5 DUP2 MSTORE PUSH1 0x20 SWAP1 DUP2 SWAP1 KECCAK256 PUSH1 0x40 DUP1 MLOAD PUSH1 0x80 DUP2 ADD DUP3 MSTORE PUSH1 0x3 DUP7 MUL SWAP1 SWAP3 ADD DUP1 SLOAD PUSH1 0xFF DUP2 AND ISZERO ISZERO DUP5 MSTORE PUSH2 0x100 SWAP1 DIV PUSH4 0xFFFFFFFF AND DUP4 DUP6 ADD MSTORE PUSH1 0x1 DUP1 DUP3 ADD SLOAD SWAP3 DUP5 ADD SWAP3 SWAP1 SWAP3 MSTORE PUSH1 0x2 ADD SLOAD PUSH1 0x60 DUP4 ADD MSTORE SWAP1 DUP4 MSTORE SWAP1 SWAP3 ADD SWAP2 ADD PUSH2 0x2AE7 JUMP JUMPDEST POP POP POP POP DUP2 MSTORE POP POP SWAP1 POP PUSH1 0x0 DUP1 JUMPDEST DUP3 PUSH2 0x140 ADD MLOAD MLOAD DUP2 LT ISZERO PUSH2 0x2BA3 JUMPI DUP3 PUSH2 0x140 ADD MLOAD DUP2 DUP2 MLOAD DUP2 LT PUSH2 0x2B7A JUMPI PUSH2 0x2B7A PUSH2 0x314C JUMP JUMPDEST PUSH1 0x20 MUL PUSH1 0x20 ADD ADD MLOAD PUSH1 0x40 ADD MLOAD DUP3 PUSH2 0x2B91 SWAP2 SWAP1 PUSH2 0x3225 JUMP JUMPDEST SWAP2 POP PUSH2 0x2B9C DUP2 PUSH2 0x326A JUMP JUMPDEST SWAP1 POP PUSH2 0x2B55 JUMP JUMPDEST PUSH1 0x1E DUP6 GT PUSH2 0x2C0D JUMPI POP PUSH1 0x0 JUMPDEST DUP3 PUSH2 0x120 ADD MLOAD MLOAD DUP2 LT ISZERO PUSH2 0x2C0D JUMPI PUSH2 0x2BF1 DUP4 PUSH2 0x120 ADD MLOAD DUP3 DUP2 MLOAD DUP2 LT PUSH2 0x2BD7 JUMPI PUSH2 0x2BD7 PUSH2 0x314C JUMP JUMPDEST PUSH1 0x20 MUL PUSH1 0x20 ADD ADD MLOAD DUP7 PUSH1 0x1 PUSH2 0x2BEC SWAP2 SWAP1 PUSH2 0x3225 JUMP JUMPDEST PUSH2 0x29CE JUMP JUMPDEST PUSH2 0x2BFB SWAP1 DUP4 PUSH2 0x3225 JUMP JUMPDEST SWAP2 POP PUSH2 0x2C06 DUP2 PUSH2 0x326A JUMP JUMPDEST SWAP1 POP PUSH2 0x2BAF JUMP JUMPDEST POP SWAP5 SWAP4 POP POP POP POP JUMP JUMPDEST PUSH1 0x1 PUSH1 0x1 PUSH1 0xA0 SHL SUB DUP3 AND PUSH1 0x0 SWAP1 DUP2 MSTORE PUSH1 0x9 PUSH1 0x20 SWAP1 DUP2 MSTORE PUSH1 0x40 DUP1 DUP4 KECCAK256 PUSH1 0x6 ADD DUP1 SLOAD DUP3 MLOAD DUP2 DUP6 MUL DUP2 ADD DUP6 ADD SWAP1 SWAP4 MSTORE DUP1 DUP4 MSTORE DUP5 SWAP4 DUP4 ADD DUP3 DUP3 DUP1 ISZERO PUSH2 0x2C80 JUMPI PUSH1 0x20 MUL DUP3 ADD SWAP2 SWAP1 PUSH1 0x0 MSTORE PUSH1 0x20 PUSH1 0x0 KECCAK256 SWAP1 JUMPDEST DUP2 SLOAD PUSH1 0x1 PUSH1 0x1 PUSH1 0xA0 SHL SUB AND DUP2 MSTORE PUSH1 0x1 SWAP1 SWAP2 ADD SWAP1 PUSH1 0x20 ADD DUP1 DUP4 GT PUSH2 0x2C62 JUMPI JUMPDEST POP POP POP POP POP SWAP1 POP PUSH1 0x0 DUP2 MLOAD SWAP1 POP PUSH1 0x1E DUP5 PUSH4 0xFFFFFFFF AND GT PUSH2 0x2CF2 JUMPI PUSH1 0x0 JUMPDEST DUP3 MLOAD DUP2 LT ISZERO PUSH2 0x2C0D JUMPI PUSH2 0x2CD6 DUP4 DUP3 DUP2 MLOAD DUP2 LT PUSH2 0x2CBC JUMPI PUSH2 0x2CBC PUSH2 0x314C JUMP JUMPDEST PUSH1 0x20 MUL PUSH1 0x20 ADD ADD MLOAD DUP7 PUSH1 0x1 PUSH2 0x2CD1 SWAP2 SWAP1 PUSH2 0x32C0 JUMP JUMPDEST PUSH2 0x2C16 JUMP JUMPDEST PUSH2 0x2CE0 SWAP1 DUP4 PUSH2 0x3225 JUMP JUMPDEST SWAP2 POP PUSH2 0x2CEB DUP2 PUSH2 0x326A JUMP JUMPDEST SWAP1 POP PUSH2 0x2C9E JUMP JUMPDEST SWAP5 SWAP4 POP POP POP POP JUMP JUMPDEST POP DUP1 SLOAD PUSH1 0x0 DUP3 SSTORE SWAP1 PUSH1 0x0 MSTORE PUSH1 0x20 PUSH1 0x0 KECCAK256 SWAP1 DUP2 ADD SWAP1 PUSH2 0x274A SWAP2 SWAP1 JUMPDEST DUP1 DUP3 GT ISZERO PUSH2 0x2D28 JUMPI PUSH1 0x0 DUP2 SSTORE PUSH1 0x1 ADD PUSH2 0x2D14 JUMP JUMPDEST POP SWAP1 JUMP JUMPDEST PUSH1 0x1 PUSH1 0x1 PUSH1 0xA0 SHL SUB DUP2 AND DUP2 EQ PUSH2 0x274A JUMPI PUSH1 0x0 DUP1 REVERT JUMPDEST PUSH1 0x0 PUSH1 0x20 DUP3 DUP5 SUB SLT ISZERO PUSH2 0x2D53 JUMPI PUSH1 0x0 DUP1 REVERT JUMPDEST DUP2 CALLDATALOAD PUSH2 0x1679 DUP2 PUSH2 0x2D2C JUMP JUMPDEST PUSH1 0x0 DUP1 PUSH1 0x40 DUP4 DUP6 SUB SLT ISZERO PUSH2 0x2D71 JUMPI PUSH1 0x0 DUP1 REVERT JUMPDEST DUP3 CALLDATALOAD SWAP2 POP PUSH1 0x20 DUP4 ADD CALLDATALOAD PUSH2 0x2D83 DUP2 PUSH2 0x2D2C JUMP JUMPDEST DUP1 SWAP2 POP POP SWAP3 POP SWAP3 SWAP1 POP JUMP JUMPDEST PUSH1 0x0 DUP1 PUSH1 0x40 DUP4 DUP6 SUB SLT ISZERO PUSH2 0x2DA1 JUMPI PUSH1 0x0 DUP1 REVERT JUMPDEST DUP3 CALLDATALOAD PUSH2 0x2DAC DUP2 PUSH2 0x2D2C JUMP JUMPDEST SWAP2 POP PUSH1 0x20 DUP4 ADD CALLDATALOAD PUSH2 0x2D83 DUP2 PUSH2 0x2D2C JUMP JUMPDEST PUSH1 0x0 DUP1 PUSH1 0x40 DUP4 DUP6 SUB SLT ISZERO PUSH2 0x2DCF JUMPI PUSH1 0x0 DUP1 REVERT JUMPDEST DUP3 CALLDATALOAD PUSH2 0x2DDA DUP2 PUSH2 0x2D2C JUMP JUMPDEST SWAP5 PUSH1 0x20 SWAP4 SWAP1 SWAP4 ADD CALLDATALOAD SWAP4 POP POP POP JUMP JUMPDEST PUSH1 0x0 DUP2 MLOAD DUP1 DUP5 MSTORE PUSH1 0x20 DUP1 DUP6 ADD SWAP5 POP DUP1 DUP5 ADD PUSH1 0x0 JUMPDEST DUP4 DUP2 LT ISZERO PUSH2 0x2E21 JUMPI DUP2 MLOAD PUSH1 0x1 PUSH1 0x1 PUSH1 0xA0 SHL SUB AND DUP8 MSTORE SWAP6 DUP3 ADD SWAP6 SWAP1 DUP3 ADD SWAP1 PUSH1 0x1 ADD PUSH2 0x2DFC JUMP JUMPDEST POP SWAP5 SWAP6 SWAP5 POP POP POP POP POP JUMP JUMPDEST PUSH1 0x0 DUP2 MLOAD DUP1 DUP5 MSTORE PUSH1 0x20 DUP1 DUP6 ADD SWAP5 POP DUP1 DUP5 ADD PUSH1 0x0 JUMPDEST DUP4 DUP2 LT ISZERO PUSH2 0x2E21 JUMPI DUP2 MLOAD DUP1 MLOAD ISZERO ISZERO DUP9 MSTORE DUP4 DUP2 ADD MLOAD PUSH4 0xFFFFFFFF AND DUP5 DUP10 ADD MSTORE PUSH1 0x40 DUP1 DUP3 ADD MLOAD SWAP1 DUP10 ADD MSTORE PUSH1 0x60 SWAP1 DUP2 ADD MLOAD SWAP1 DUP9 ADD MSTORE PUSH1 0x80 SWAP1 SWAP7 ADD SWAP6 SWAP1 DUP3 ADD SWAP1 PUSH1 0x1 ADD PUSH2 0x2E40 JUMP JUMPDEST PUSH1 0x20 DUP2 MSTORE PUSH2 0x2E98 PUSH1 0x20 DUP3 ADD DUP4 MLOAD PUSH1 0xFF AND SWAP1 MSTORE JUMP JUMPDEST PUSH1 0x0 PUSH1 0x20 DUP4 ADD MLOAD PUSH2 0x2EAE PUSH1 0x40 DUP5 ADD DUP3 PUSH1 0xFF AND SWAP1 MSTORE JUMP JUMPDEST POP PUSH1 0x40 DUP4 ADD MLOAD PUSH1 0xFF DUP2 AND PUSH1 0x60 DUP5 ADD MSTORE POP PUSH1 0x60 DUP4 ADD MLOAD PUSH1 0xFF DUP2 AND PUSH1 0x80 DUP5 ADD MSTORE POP PUSH1 0x80 DUP4 ADD MLOAD PUSH1 0xA0 DUP4 ADD MSTORE PUSH1 0xA0 DUP4 ADD MLOAD PUSH1 0xC0 DUP4 ADD MSTORE PUSH1 0xC0 DUP4 ADD MLOAD PUSH1 0xE0 DUP4 ADD MSTORE PUSH1 0xE0 DUP4 ADD MLOAD PUSH2 0x100 DUP2 DUP2 DUP6 ADD MSTORE DUP1 DUP6 ADD MLOAD SWAP2 POP POP PUSH2 0x120 PUSH2 0x2F16 DUP2 DUP6 ADD DUP4 PUSH1 0x1 PUSH1 0x1 PUSH1 0xA0 SHL SUB AND SWAP1 MSTORE JUMP JUMPDEST DUP1 DUP6 ADD MLOAD SWAP2 POP POP PUSH2 0x160 PUSH2 0x140 DUP2 DUP2 DUP7 ADD MSTORE PUSH2 0x2F36 PUSH2 0x180 DUP7 ADD DUP5 PUSH2 0x2DE8 JUMP JUMPDEST SWAP1 DUP7 ADD MLOAD DUP6 DUP3 SUB PUSH1 0x1F NOT ADD DUP4 DUP8 ADD MSTORE SWAP1 SWAP3 POP PUSH2 0x2F52 DUP4 DUP3 PUSH2 0x2E2C JUMP JUMPDEST SWAP7 SWAP6 POP POP POP POP POP POP JUMP JUMPDEST PUSH1 0x20 DUP1 DUP3 MSTORE DUP3 MLOAD DUP3 DUP3 ADD DUP2 SWAP1 MSTORE PUSH1 0x0 SWAP2 SWAP1 DUP5 DUP3 ADD SWAP1 PUSH1 0x40 DUP6 ADD SWAP1 DUP5 JUMPDEST DUP2 DUP2 LT ISZERO PUSH2 0x2F9D JUMPI DUP4 MLOAD PUSH1 0x1 PUSH1 0x1 PUSH1 0xA0 SHL SUB AND DUP4 MSTORE SWAP3 DUP5 ADD SWAP3 SWAP2 DUP5 ADD SWAP2 PUSH1 0x1 ADD PUSH2 0x2F78 JUMP JUMPDEST POP SWAP1 SWAP7 SWAP6 POP POP POP POP POP POP JUMP JUMPDEST DUP1 CALLDATALOAD PUSH1 0xFF DUP2 AND DUP2 EQ PUSH2 0x2FBA JUMPI PUSH1 0x0 DUP1 REVERT JUMPDEST SWAP2 SWAP1 POP JUMP JUMPDEST PUSH1 0x0 DUP1 PUSH1 0x0 DUP1 PUSH1 0x0 PUSH1 0xA0 DUP7 DUP9 SUB SLT ISZERO PUSH2 0x2FD7 JUMPI PUSH1 0x0 DUP1 REVERT JUMPDEST DUP6 CALLDATALOAD PUSH2 0x2FE2 DUP2 PUSH2 0x2D2C JUMP JUMPDEST SWAP5 POP PUSH2 0x2FF0 PUSH1 0x20 DUP8 ADD PUSH2 0x2FA9 JUMP JUMPDEST SWAP4 POP PUSH1 0x40 DUP7 ADD CALLDATALOAD PUSH4 0xFFFFFFFF DUP2 AND DUP2 EQ PUSH2 0x3009 JUMPI PUSH1 0x0 DUP1 REVERT JUMPDEST SWAP5 SWAP8 SWAP4 SWAP7 POP SWAP4 SWAP5 PUSH1 0x60 DUP2 ADD CALLDATALOAD SWAP5 POP PUSH1 0x80 ADD CALLDATALOAD SWAP3 SWAP2 POP POP JUMP JUMPDEST PUSH1 0x0 DUP1 PUSH1 0x0 DUP1 PUSH1 0x0 DUP1 PUSH1 0x0 PUSH1 0xE0 DUP9 DUP11 SUB SLT ISZERO PUSH2 0x303C JUMPI PUSH1 0x0 DUP1 REVERT JUMPDEST DUP8 CALLDATALOAD PUSH2 0x3047 DUP2 PUSH2 0x2D2C JUMP JUMPDEST SWAP7 POP PUSH2 0x3055 PUSH1 0x20 DUP10 ADD PUSH2 0x2FA9 JUMP JUMPDEST SWAP6 POP PUSH2 0x3063 PUSH1 0x40 DUP10 ADD PUSH2 0x2FA9 JUMP JUMPDEST SWAP5 POP PUSH2 0x3071 PUSH1 0x60 DUP10 ADD PUSH2 0x2FA9 JUMP JUMPDEST SWAP4 POP PUSH2 0x307F PUSH1 0x80 DUP10 ADD PUSH2 0x2FA9 JUMP JUMPDEST SWAP3 POP PUSH1 0xA0 DUP9 ADD CALLDATALOAD SWAP2 POP PUSH1 0xC0 DUP9 ADD CALLDATALOAD SWAP1 POP SWAP3 SWAP6 SWAP9 SWAP2 SWAP5 SWAP8 POP SWAP3 SWAP6 POP JUMP JUMPDEST PUSH1 0x0 DUP1 PUSH1 0x0 PUSH1 0x40 DUP5 DUP7 SUB SLT ISZERO PUSH2 0x30B0 JUMPI PUSH1 0x0 DUP1 REVERT JUMPDEST DUP4 CALLDATALOAD PUSH2 0x30BB DUP2 PUSH2 0x2D2C JUMP JUMPDEST SWAP3 POP PUSH1 0x20 DUP5 ADD CALLDATALOAD PUSH8 0xFFFFFFFFFFFFFFFF DUP1 DUP3 GT ISZERO PUSH2 0x30D8 JUMPI PUSH1 0x0 DUP1 REVERT JUMPDEST DUP2 DUP7 ADD SWAP2 POP DUP7 PUSH1 0x1F DUP4 ADD SLT PUSH2 0x30EC JUMPI PUSH1 0x0 DUP1 REVERT JUMPDEST DUP2 CALLDATALOAD DUP2 DUP2 GT ISZERO PUSH2 0x30FB JUMPI PUSH1 0x0 DUP1 REVERT JUMPDEST DUP8 PUSH1 0x20 DUP3 PUSH1 0x5 SHL DUP6 ADD ADD GT ISZERO PUSH2 0x3110 JUMPI PUSH1 0x0 DUP1 REVERT JUMPDEST PUSH1 0x20 DUP4 ADD SWAP5 POP DUP1 SWAP4 POP POP POP POP SWAP3 POP SWAP3 POP SWAP3 JUMP JUMPDEST PUSH4 0x4E487B71 PUSH1 0xE0 SHL PUSH1 0x0 MSTORE PUSH1 0x11 PUSH1 0x4 MSTORE PUSH1 0x24 PUSH1 0x0 REVERT JUMPDEST DUP2 DUP2 SUB DUP2 DUP2 GT ISZERO PUSH2 0x1667 JUMPI PUSH2 0x1667 PUSH2 0x3123 JUMP JUMPDEST PUSH4 0x4E487B71 PUSH1 0xE0 SHL PUSH1 0x0 MSTORE PUSH1 0x32 PUSH1 0x4 MSTORE PUSH1 0x24 PUSH1 0x0 REVERT JUMPDEST PUSH4 0xFFFFFFFF DUP3 DUP2 AND DUP3 DUP3 AND SUB SWAP1 DUP1 DUP3 GT ISZERO PUSH2 0x317F JUMPI PUSH2 0x317F PUSH2 0x3123 JUMP JUMPDEST POP SWAP3 SWAP2 POP POP JUMP JUMPDEST PUSH4 0x4E487B71 PUSH1 0xE0 SHL PUSH1 0x0 MSTORE PUSH1 0x12 PUSH1 0x4 MSTORE PUSH1 0x24 PUSH1 0x0 REVERT JUMPDEST PUSH1 0x0 PUSH4 0xFFFFFFFF DUP1 DUP5 AND DUP1 PUSH2 0x31B3 JUMPI PUSH2 0x31B3 PUSH2 0x3186 JUMP JUMPDEST SWAP3 AND SWAP2 SWAP1 SWAP2 DIV SWAP3 SWAP2 POP POP JUMP JUMPDEST PUSH1 0x0 DUP3 PUSH2 0x31CE JUMPI PUSH2 0x31CE PUSH2 0x3186 JUMP JUMPDEST POP DIV SWAP1 JUMP JUMPDEST DUP1 DUP3 MUL DUP2 ISZERO DUP3 DUP3 DIV DUP5 EQ OR PUSH2 0x1667 JUMPI PUSH2 0x1667 PUSH2 0x3123 JUMP JUMPDEST PUSH1 0x0 PUSH1 0x20 DUP3 DUP5 SUB SLT ISZERO PUSH2 0x31FC JUMPI PUSH1 0x0 DUP1 REVERT JUMPDEST POP MLOAD SWAP2 SWAP1 POP JUMP JUMPDEST PUSH1 0x0 PUSH1 0x20 DUP3 DUP5 SUB SLT ISZERO PUSH2 0x3215 JUMPI PUSH1 0x0 DUP1 REVERT JUMPDEST DUP2 MLOAD DUP1 ISZERO ISZERO DUP2 EQ PUSH2 0x1679 JUMPI PUSH1 0x0 DUP1 REVERT JUMPDEST DUP1 DUP3 ADD DUP1 DUP3 GT ISZERO PUSH2 0x1667 JUMPI PUSH2 0x1667 PUSH2 0x3123 JUMP JUMPDEST PUSH1 0xFF DUP2 DUP2 AND DUP4 DUP3 AND ADD SWAP1 DUP2 GT ISZERO PUSH2 0x1667 JUMPI PUSH2 0x1667 PUSH2 0x3123 JUMP JUMPDEST PUSH1 0xFF DUP3 DUP2 AND DUP3 DUP3 AND SUB SWAP1 DUP2 GT ISZERO PUSH2 0x1667 JUMPI PUSH2 0x1667 PUSH2 0x3123 JUMP JUMPDEST PUSH1 0x0 PUSH1 0x1 DUP3 ADD PUSH2 0x327C JUMPI PUSH2 0x327C PUSH2 0x3123 JUMP JUMPDEST POP PUSH1 0x1 ADD SWAP1 JUMP JUMPDEST PUSH1 0x20 DUP1 DUP3 MSTORE PUSH1 0x6 SWAP1 DUP3 ADD MSTORE PUSH6 0x10B7BBB732B9 PUSH1 0xD1 SHL PUSH1 0x40 DUP3 ADD MSTORE PUSH1 0x60 ADD SWAP1 JUMP JUMPDEST PUSH1 0x0 PUSH1 0x20 DUP3 DUP5 SUB SLT ISZERO PUSH2 0x32B5 JUMPI PUSH1 0x0 DUP1 REVERT JUMPDEST DUP2 MLOAD PUSH2 0x1679 DUP2 PUSH2 0x2D2C JUMP JUMPDEST PUSH4 0xFFFFFFFF DUP2 DUP2 AND DUP4 DUP3 AND ADD SWAP1 DUP1 DUP3 GT ISZERO PUSH2 0x317F JUMPI PUSH2 0x317F PUSH2 0x3123 JUMP INVALID LOG2 PUSH5 0x6970667358 0x22 SLT KECCAK256 BALANCE SMOD 0xEF 0xD9 LOG0 CALLDATASIZE CALLDATALOAD RETURNDATACOPY ORIGIN 0xE0 LOG4 0xEA 0xBE 0xE8 CALLVALUE 0xA6 DUP7 0xF9 0xB4 RETURNDATACOPY DUP3 0x4B CALLDATALOAD 0xA6 0x29 0xC9 AND JUMPDEST BLOCKHASH 0xC5 DIV 0x4F PUSH5 0x736F6C6343 STOP ADDMOD GT STOP CALLER "
		},
		"gasEstimates": {
			"creation": {
				"codeDepositCost": "2615000",
				"executionCost": "28604",
				"totalCost": "2643604"
			},
			"external": {
				"_priceTime()": "2384",
				"claimInviteBonus()": "infinite",
				"claimMintToken()": "infinite",
				"getBurnAmount()": "2359",
				"getMarketAddress()": "2376",
				"getMyTokenContractAddress()": "2421",
				"getNowPrice()": "2359",
				"getUserInfo(address)": "infinite",
				"getUserList()": "infinite",
				"hasCircleParent(address,address)": "infinite",
				"invest(uint256,address)": "infinite",
				"owner()": "2431",
				"queryLevelRate(address)": "infinite",
				"queryMintToken(address)": "infinite",
				"queryTeamMemberCount(address)": "infinite",
				"queryTeamUsdtAmount(address)": "infinite",
				"releaseBalance()": "infinite",
				"releaseToken(address,uint256)": "infinite",
				"renounceOwnership()": "30210",
				"setMarketAddress(address)": "26793",
				"setMyTokenContractAddress(address)": "infinite",
				"testSetUpdatePrice()": "infinite",
				"testSetUserInfo(address,uint8,uint8,uint8,uint8,uint256,uint256)": "infinite",
				"testSetUserInvited(address,address[])": "infinite",
				"testSetUserOrder(address,uint8,uint32,uint256,uint256)": "71362",
				"transferOwnership(address)": "30483",
				"upgradeLevelRate()": "infinite"
			},
			"internal": {
				"_getTeamMemberCount(address,uint32)": "infinite",
				"_getTeamUsdtAmount(address,uint256)": "infinite",
				"_hasCircleParent(address,address)": "infinite",
				"updateLastPrice()": "infinite"
			}
		},
		"methodIdentifiers": {
			"_priceTime()": "78687a4e",
			"claimInviteBonus()": "7371da0d",
			"claimMintToken()": "5618f47a",
			"getBurnAmount()": "d0c5c585",
			"getMarketAddress()": "e7334fe5",
			"getMyTokenContractAddress()": "af0d3b9a",
			"getNowPrice()": "e9079245",
			"getUserInfo(address)": "6386c1c7",
			"getUserList()": "b8522043",
			"hasCircleParent(address,address)": "3f3a6783",
			"invest(uint256,address)": "3d103b97",
			"owner()": "8da5cb5b",
			"queryLevelRate(address)": "4b13b990",
			"queryMintToken(address)": "174db7bb",
			"queryTeamMemberCount(address)": "dd4a470e",
			"queryTeamUsdtAmount(address)": "542d3f1c",
			"releaseBalance()": "f53fa632",
			"releaseToken(address,uint256)": "53edd8f7",
			"renounceOwnership()": "715018a6",
			"setMarketAddress(address)": "fae92612",
			"setMyTokenContractAddress(address)": "a84b52a5",
			"testSetUpdatePrice()": "a039b403",
			"testSetUserInfo(address,uint8,uint8,uint8,uint8,uint256,uint256)": "f6f32206",
			"testSetUserInvited(address,address[])": "fc81f3ec",
			"testSetUserOrder(address,uint8,uint32,uint256,uint256)": "dd3bcc15",
			"transferOwnership(address)": "f2fde38b",
			"upgradeLevelRate()": "1bc1a64b"
		}
	},
	"abi": [
		{
			"inputs": [],
			"stateMutability": "nonpayable",
			"type": "constructor"
		},
		{
			"anonymous": false,
			"inputs": [
				{
					"indexed": true,
					"internalType": "address",
					"name": "previousOwner",
					"type": "address"
				},
				{
					"indexed": true,
					"internalType": "address",
					"name": "newOwner",
					"type": "address"
				}
			],
			"name": "OwnershipTransferred",
			"type": "event"
		},
		{
			"inputs": [],
			"name": "_priceTime",
			"outputs": [
				{
					"internalType": "uint256",
					"name": "",
					"type": "uint256"
				}
			],
			"stateMutability": "view",
			"type": "function"
		},
		{
			"inputs": [],
			"name": "claimInviteBonus",
			"outputs": [],
			"stateMutability": "nonpayable",
			"type": "function"
		},
		{
			"inputs": [],
			"name": "claimMintToken",
			"outputs": [],
			"stateMutability": "nonpayable",
			"type": "function"
		},
		{
			"inputs": [],
			"name": "getBurnAmount",
			"outputs": [
				{
					"internalType": "uint256",
					"name": "",
					"type": "uint256"
				}
			],
			"stateMutability": "view",
			"type": "function"
		},
		{
			"inputs": [],
			"name": "getMarketAddress",
			"outputs": [
				{
					"internalType": "address",
					"name": "",
					"type": "address"
				}
			],
			"stateMutability": "view",
			"type": "function"
		},
		{
			"inputs": [],
			"name": "getMyTokenContractAddress",
			"outputs": [
				{
					"internalType": "address",
					"name": "",
					"type": "address"
				}
			],
			"stateMutability": "view",
			"type": "function"
		},
		{
			"inputs": [],
			"name": "getNowPrice",
			"outputs": [
				{
					"internalType": "uint256",
					"name": "",
					"type": "uint256"
				}
			],
			"stateMutability": "view",
			"type": "function"
		},
		{
			"inputs": [
				{
					"internalType": "address",
					"name": "userAddress",
					"type": "address"
				}
			],
			"name": "getUserInfo",
			"outputs": [
				{
					"components": [
						{
							"internalType": "uint8",
							"name": "zhituiRate",
							"type": "uint8"
						},
						{
							"internalType": "uint8",
							"name": "jintuiRate",
							"type": "uint8"
						},
						{
							"internalType": "uint8",
							"name": "teamRate",
							"type": "uint8"
						},
						{
							"internalType": "uint8",
							"name": "levelRate",
							"type": "uint8"
						},
						{
							"internalType": "uint256",
							"name": "zhituiUsdtAmount",
							"type": "uint256"
						},
						{
							"internalType": "uint256",
							"name": "jintuiUsdtAmount",
							"type": "uint256"
						},
						{
							"internalType": "uint256",
							"name": "inviteBonusAmount",
							"type": "uint256"
						},
						{
							"internalType": "uint256",
							"name": "claimedInviteBonusAmount",
							"type": "uint256"
						},
						{
							"internalType": "address",
							"name": "parent",
							"type": "address"
						},
						{
							"internalType": "address[]",
							"name": "invited",
							"type": "address[]"
						},
						{
							"components": [
								{
									"internalType": "bool",
									"name": "isClear",
									"type": "bool"
								},
								{
									"internalType": "uint32",
									"name": "investTime",
									"type": "uint32"
								},
								{
									"internalType": "uint256",
									"name": "usdtAmount",
									"type": "uint256"
								},
								{
									"internalType": "uint256",
									"name": "claimedAmount",
									"type": "uint256"
								}
							],
							"internalType": "struct Dapp.Order[]",
							"name": "orders",
							"type": "tuple[]"
						}
					],
					"internalType": "struct Dapp.UserInfo",
					"name": "",
					"type": "tuple"
				}
			],
			"stateMutability": "view",
			"type": "function"
		},
		{
			"inputs": [],
			"name": "getUserList",
			"outputs": [
				{
					"internalType": "address[]",
					"name": "",
					"type": "address[]"
				}
			],
			"stateMutability": "view",
			"type": "function"
		},
		{
			"inputs": [
				{
					"internalType": "address",
					"name": "userAddress",
					"type": "address"
				},
				{
					"internalType": "address",
					"name": "parentAddress",
					"type": "address"
				}
			],
			"name": "hasCircleParent",
			"outputs": [
				{
					"internalType": "bool",
					"name": "",
					"type": "bool"
				}
			],
			"stateMutability": "view",
			"type": "function"
		},
		{
			"inputs": [
				{
					"internalType": "uint256",
					"name": "usdtAmount",
					"type": "uint256"
				},
				{
					"internalType": "address",
					"name": "parent",
					"type": "address"
				}
			],
			"name": "invest",
			"outputs": [
				{
					"internalType": "bool",
					"name": "success",
					"type": "bool"
				}
			],
			"stateMutability": "nonpayable",
			"type": "function"
		},
		{
			"inputs": [],
			"name": "owner",
			"outputs": [
				{
					"internalType": "address",
					"name": "",
					"type": "address"
				}
			],
			"stateMutability": "view",
			"type": "function"
		},
		{
			"inputs": [
				{
					"internalType": "address",
					"name": "userAddress",
					"type": "address"
				}
			],
			"name": "queryLevelRate",
			"outputs": [
				{
					"internalType": "uint8",
					"name": "",
					"type": "uint8"
				}
			],
			"stateMutability": "view",
			"type": "function"
		},
		{
			"inputs": [
				{
					"internalType": "address",
					"name": "userAddress",
					"type": "address"
				}
			],
			"name": "queryMintToken",
			"outputs": [
				{
					"internalType": "uint256",
					"name": "mintToken",
					"type": "uint256"
				},
				{
					"internalType": "uint256",
					"name": "avaliableAmount",
					"type": "uint256"
				},
				{
					"internalType": "bool",
					"name": "orderExpire",
					"type": "bool"
				}
			],
			"stateMutability": "view",
			"type": "function"
		},
		{
			"inputs": [
				{
					"internalType": "address",
					"name": "userAddress",
					"type": "address"
				}
			],
			"name": "queryTeamMemberCount",
			"outputs": [
				{
					"internalType": "uint256",
					"name": "",
					"type": "uint256"
				}
			],
			"stateMutability": "view",
			"type": "function"
		},
		{
			"inputs": [
				{
					"internalType": "address",
					"name": "userAddress",
					"type": "address"
				}
			],
			"name": "queryTeamUsdtAmount",
			"outputs": [
				{
					"internalType": "uint256",
					"name": "totalUsdtAmount",
					"type": "uint256"
				}
			],
			"stateMutability": "view",
			"type": "function"
		},
		{
			"inputs": [],
			"name": "releaseBalance",
			"outputs": [],
			"stateMutability": "nonpayable",
			"type": "function"
		},
		{
			"inputs": [
				{
					"internalType": "address",
					"name": "token",
					"type": "address"
				},
				{
					"internalType": "uint256",
					"name": "amount",
					"type": "uint256"
				}
			],
			"name": "releaseToken",
			"outputs": [],
			"stateMutability": "nonpayable",
			"type": "function"
		},
		{
			"inputs": [],
			"name": "renounceOwnership",
			"outputs": [],
			"stateMutability": "nonpayable",
			"type": "function"
		},
		{
			"inputs": [
				{
					"internalType": "address",
					"name": "addr",
					"type": "address"
				}
			],
			"name": "setMarketAddress",
			"outputs": [],
			"stateMutability": "nonpayable",
			"type": "function"
		},
		{
			"inputs": [
				{
					"internalType": "address",
					"name": "contractAddress",
					"type": "address"
				}
			],
			"name": "setMyTokenContractAddress",
			"outputs": [],
			"stateMutability": "nonpayable",
			"type": "function"
		},
		{
			"inputs": [],
			"name": "testSetUpdatePrice",
			"outputs": [],
			"stateMutability": "nonpayable",
			"type": "function"
		},
		{
			"inputs": [
				{
					"internalType": "address",
					"name": "userAddress",
					"type": "address"
				},
				{
					"internalType": "uint8",
					"name": "zhituiRate",
					"type": "uint8"
				},
				{
					"internalType": "uint8",
					"name": "jintuiRate",
					"type": "uint8"
				},
				{
					"internalType": "uint8",
					"name": "teamRate",
					"type": "uint8"
				},
				{
					"internalType": "uint8",
					"name": "levelRate",
					"type": "uint8"
				},
				{
					"internalType": "uint256",
					"name": "inviteBonusAmount",
					"type": "uint256"
				},
				{
					"internalType": "uint256",
					"name": "claimedInviteBonusAmount",
					"type": "uint256"
				}
			],
			"name": "testSetUserInfo",
			"outputs": [],
			"stateMutability": "nonpayable",
			"type": "function"
		},
		{
			"inputs": [
				{
					"internalType": "address",
					"name": "userAddress",
					"type": "address"
				},
				{
					"internalType": "address[]",
					"name": "invited",
					"type": "address[]"
				}
			],
			"name": "testSetUserInvited",
			"outputs": [],
			"stateMutability": "nonpayable",
			"type": "function"
		},
		{
			"inputs": [
				{
					"internalType": "address",
					"name": "userAddress",
					"type": "address"
				},
				{
					"internalType": "uint8",
					"name": "orderIndex",
					"type": "uint8"
				},
				{
					"internalType": "uint32",
					"name": "investTime",
					"type": "uint32"
				},
				{
					"internalType": "uint256",
					"name": "usdtAmount",
					"type": "uint256"
				},
				{
					"internalType": "uint256",
					"name": "claimedAmount",
					"type": "uint256"
				}
			],
			"name": "testSetUserOrder",
			"outputs": [],
			"stateMutability": "nonpayable",
			"type": "function"
		},
		{
			"inputs": [
				{
					"internalType": "address",
					"name": "newOwner",
					"type": "address"
				}
			],
			"name": "transferOwnership",
			"outputs": [],
			"stateMutability": "nonpayable",
			"type": "function"
		},
		{
			"inputs": [],
			"name": "upgradeLevelRate",
			"outputs": [
				{
					"internalType": "bool",
					"name": "",
					"type": "bool"
				}
			],
			"stateMutability": "nonpayable",
			"type": "function"
		},
		{
			"stateMutability": "payable",
			"type": "receive"
		}
	]
}